:100000000C94AB010C94D3010C94D3010C94D30148
:100010000C94D3010C94D3010C94D3010C94D30110
:100020000C94D3010C94D3010C94ED110C949F10FB
:100030000C94D3010C94D3010C94D3010C94D301F0
:100040000C94D3010C94D3010C94D3010C94D301E0
:100050000C94D3010C94D3010C94D3010C94270B72
:100060000C94D3010C94D3010C94D3010C94D301C0
:100070000C94D3010C94D3010C94D3010C94D301B0
:100080000C94D3010C94D3010C94D3010C94D301A0
:100090000C94D3010C94D3010C94D3010C94D30190
:1000A0000C94D3010C94BE070C94D301570D5A0D38
:1000B0004D0D510D7B0D7B0D7B0D5E0D620D660DA3
:1000C0006C0D700D7B0D760D3A0E3F0E440E4E0EEC
:1000D000980E980E980E580E620E6C0E760E830EC9
:1000E000980E8B0E05A84CCDB2D44EB93836A90265
:1000F0000C50B9918688083CA6AAAA2ABE00000026
:10010000803F0664EC1B3C04BC163E3BE5B93CC991
:100110003C37C29E5A3D660498083EEA69AAAA3E48
:10012000000000803F0000000200080E00000304F1
:1001300001000B00000000000000000000000000B3
:100140000000000408020110408040102040804060
:10015000800802040180402010020110801020401D
:10016000400404040404030405020202020403021E
:100170000202020606060606060404020202040043
:100180000000002300260029002C002F00000000A2
:1001900000250028002B002E003100000000002464
:1001A0000027002A002D00300000C18081C112010B
:1001B0000002020000404F1B0892000101020001F2
:1001C00012010002000000404F1B089200010102D2
:1001D0000001180353007000610072006B004600BC
:1001E00075006E0020002000200022034C006900F2
:1001F0006C0079005000610064005500530042001B
:10020000200020002000200020002000040309041A
:10021000080B0002020201000904000001020200B2
:100220000005240010010524010101042402060533
:1002300024060001070581031000400904010002A3
:100240000A00000007050202400000070583024083
:10025000000000000000000000002A2B2800000021
:10026000000000000000000000000000000000008E
:1002700000002C9EB4A0A1A2A434A6A7A5AE362D42
:100280003738271E1F20212223242526B333B62EDC
:10029000B7B89F8485868788898A8B8C8D8E8F904E
:1002A0009192939495969798999A9B9C9D2F313013
:1002B000A3AD350405060708090A0B0C0D0E0F1037
:1002C0001112131415161718191A1B1C1DAFB1B0F3
:1002D000B50009040200010300000009210101002A
:1002E000012265000705840340000105010902A100
:1002F000010901A10085010509190129031500253E
:1003000001950375018102950175058103050109B8
:1003100030093109381581257F750895038106C09C
:10032000C005010906A1018502050719E029E715A5
:1003300000250175019508810295017508810395D5
:10034000067508150025650507190029658100C097
:10035000C1094313B81411241FBECFEFDAE0DEBF8A
:10036000CDBF11E0A0E0B1E0E2EFF0E302C0059004
:100370000D92A433B107D9F712E0A4E3B1E001C0B4
:100380001D92A233B107E1F713E0C6E5D3E004C044
:100390002297FE010E94E017C035D107C9F70E94DD
:1003A000A10E0C9477180C94000010928701109203
:1003B0008601109289011092880184E690E0909362
:1003C0008B0180938A0182E390E090938D0180936A
:1003D0008C0181E090E0089588EC90E09093870193
:1003E00080938601109289011092880110928B01EE
:1003F00010928A0182E390E090938D0180938C01AA
:1004000081E090E00895109287011092860184E6C1
:1004100090E0909389018093880110928B01109253
:100420008A0182E390E090938D0180938C0181E0BA
:1004300090E008952FEF3FEF30938B0120938A01D6
:10044000309389012093880130938701209386019E
:10045000833091051CF028EC30E002C024E130E04C
:1004600030938D0120938C0163E070E00E94891726
:10047000880F991F8A579E4F20E530E0FC01318399
:10048000208381E090E0089580FF0DC010928B01E1
:1004900010928A01109289011092880110928701AE
:1004A0001092860113C023E030E040E050E060E0AD
:1004B00070E0CB010E94D60EFB01B996EE0FFF1F34
:1004C000EC5CFE4F80E990E09183808386E490E0CD
:1004D00090938D0180938C0181E090E0089580FFDE
:1004E0000FC084E690E090938B0180938A019093F3
:1004F000890180938801909387018093860111C0C0
:1005000023E030E040E050E060E070E0CB010E948A
:10051000D60EFB01B996EE0FFF1FEC5CFE4F118269
:10052000108284E690E090938D0180938C0181E0AD
:1005300090E00895CF92DF92EF92FF92BC0188275E
:1005400077FD8095982F0E94C8152BED3FE049EC70
:1005500051E40E942D152BED3FE049E450E40E9448
:10056000C5140E942A1520E030E04EEF52E40E94AC
:10057000B51620E030E04EEF52E40E94C6146B0145
:100580007C0120E030E0A9010E94B11620E030E0BB
:1005900040E05FE387FD05C0C701B6010E94C614B5
:1005A00004C0C701B6010E94C5140E94951570933E
:1005B0008B0160938A017093890160938801709325
:1005C00087016093860182E390E090938D01809390
:1005D0008C0181E090E0FF90EF90DF90CF90089544
:1005E000CF92DF92EF92FF92CF93DF93EC01BC01A9
:1005F000882777FD8095982F0E94C8152BED3FE046
:1006000049EC51E40E942D152BED3FE049E450E404
:100610000E94C5140E942A1520E030E04EEF52E4FB
:100620000E94B51620E030E04EEF52E40E94C6145E
:100630006B017C0120E030E0A9010E94B11620E0AE
:1006400030E040E05FE387FD05C0C701B6010E94CE
:10065000C61404C0C701B6010E94C5140E949515B6
:100660007093870160938601CA33D1050CF43FC0B3
:10067000BE016A537109882777FD8095982F0E94E3
:10068000C8152BED3FE049EC51E40E942D152BEDF0
:100690003FE049E450E40E94C5140E942A1520E07E
:1006A00030E04EEF52E40E94B51620E030E04EEF0D
:1006B00052E40E94C6146B017C0120E030E0A901E5
:1006C0000E94B11620E030E040E05FE387FD05C006
:1006D000C701B6010E94C61404C0C701B6010E943A
:1006E000C5140E949515709389016093880182E377
:1006F00090E090938D0180938C0181E090E0DF91F8
:10070000CF91FF90EF90DF90CF900895CF92DF923E
:10071000EF92FF92CF93DF93EC01BC01882777FD26
:100720008095982F0E94C8152BED3FE049EC51E4CD
:100730000E942D152BED3FE049EC5FE30E94C614AB
:100740000E942A156B017C01CE01D7FD0196BC01E8
:1007500075956795882777FD8095982F0E94C81515
:100760000E9418179B01AC01C701B6010E94C61474
:1007700020E030E048E452E40E94B51620E030E08A
:1007800048EC52E40E94C6146B017C0120E030E08A
:10079000A9010E94B11620E030E040E05FE387FD50
:1007A00005C0C701B6010E94C61404C0C701B60146
:1007B0000E94C5140E94951570938B0160938A0165
:1007C0008EE190E090938D0180938C0181E090E028
:1007D000DF91CF91FF90EF90DF90CF900895CF926F
:1007E000DF92EF92FF92BC01882777FD8095982FCA
:1007F0000E94C8152BED3FE049EC51E40E942D15F5
:100800000E941E170E941E172BED3FE049EC5FE38C
:100810000E94C5140E942A1520E030E04EEF52E4F9
:100820000E94B51620E030E04EEF52E40E94C6145C
:100830006B017C0120E030E0A9010E94B11620E0AC
:1008400030E040E05FE387FD05C0C701B6010E94CC
:10085000C61404C0C701B6010E94C5140E949515B4
:1008600070938B0160938A018EE190E090938D01EB
:1008700080938C0181E090E0FF90EF90DF90CF902B
:10088000089584E391E00C94950984E391E00C943D
:10089000EC0761E070E084E391E00E94AB044DEC72
:1008A0005CEC6CE47EE384E391E00E94E4074DECB1
:1008B0005CEC6CEC7DE384E391E00E940B0865ED59
:1008C00071E084E391E00E9413086CEE71E084E330
:1008D00091E00E94130863E072E084E391E00E94DB
:1008E000130864E472E084E391E00E9413086AE96B
:1008F00072E084E391E00E94130866E873E084E309
:1009000091E00E9413086AE172E084E391E00E94A2
:1009100013086FEE73E084E391E00E94130860EF28
:1009200072E084E391E00E9413086FE672E084E3D2
:1009300091E00E94130861E474E084E391E00E9476
:10094000BB0965E474E084E391E00C94BE0908956A
:1009500083960C94C5094F925F926F927F928F920B
:100960009F92AF92BF92CF92DF92EF92FF920F933E
:100970001F93CF93DF93EC012C0186E7480E511CA7
:1009800081EC90E0D2018D939C935E01B8E7AB0EB1
:10099000B11C8EEB90E0F501918380837E01FAE734
:1009A000EF0EF11C89E390E0D7018D939C934E01EB
:1009B000BCE78B0E911C82E790E0F4019183808369
:1009C0006E01F0E8CF0ED11C80E190E0D6018D934E
:1009D0009C938E01045B1F4F83E08B836130710514
:1009E00069F585E08C838AE08D838BE08E83798343
:1009F000688381E08D8B8DE08E8B82E08E8F8BE122
:100A00008F8F89E188A388E0FE01E05BFF4F808340
:100A10008CE03E01B1E56B0E711CF301808361E057
:100A200088E00E947C0D61E0D3018C910E947C0DD6
:100A300084E090E0F8019183808316C08C8389E084
:100A40008D838AE08E831982188281E08D8B8DE000
:100A50008E8B82E08E8F84E18F8F85E188A382E088
:100A600090E0D8018D939C931A821C8AF8016081D2
:100A700071818E010D5D1F4FC8010E94E40961E084
:100A800070E0C8010E94FE0900E010E08B8190E058
:100A900008171907A4F43E01600E711E61E0D3012E
:100AA00014968C910E947C0D8A81882329F061E044
:100AB000F30184850E947C0D0F5F1F4FE7CF00E09C
:100AC00010E08E8D90E00817190754F4FE01E00F36
:100AD000F11F60E0878D0E947C0D0F5F1F4FF1CFEB
:100AE00000E010E08D8990E00817190754F4FE012A
:100AF000E00FF11F61E086890E947C0D0F5F1F4FA0
:100B0000F1CFD401ED91FC9184E08083FE01EC589B
:100B1000FF4F11821082D501ED91FC91D6018D918C
:100B20009C9191838083D701ED91FC911082D20139
:100B3000ED91FC9185E08083FE01EC59FF4F40E090
:100B400050E060E87FE34083518362837383FE015A
:100B5000E859FF4F8DEC9CECACECBDE380839183B6
:100B6000A283B383FE01E459FF4F40835183628324
:100B70007383C059DF4F88839983AA83BB83DF9136
:100B8000CF911F910F91FF90EF90DF90CF90BF908A
:100B9000AF909F908F907F906F905F904F9008954F
:100BA0004F925F926F927F928F929F92AF92BF927D
:100BB000CF92DF92EF92FF920F931F93CF93DF9329
:100BC0008C01252FFC0143806F3FFFEF7F0721F44D
:100BD000512CC12CD12C0EC0CB0177FF03C09195B5
:100BE00081959109642D70E00E9489176C0144245D
:100BF0004394512CF8018281C42FD22F882369F0AD
:100C0000CF3FD10519F014F0CFEFD0E0C130FFEFA6
:100C1000DF076CF4C1E0DFEF0AC0CF3FD10519F068
:100C200014F0CFEFD0E0D7FF02C0C0E0D0E0BE01AB
:100C3000882777FD8095982F0E94C8154B015C018D
:100C4000780184E6E80EF11CF701208131814281B0
:100C50005381C501B4010E94B51620E030E04FE792
:100C600053E40E94B116181684F48FEF90E0BE0191
:100C70000E948917882777FD8095982F0E94C815B4
:100C8000F7016083718382839383612C712C6414D8
:100C900075047CF5C00ED11E209769F460E070E009
:100CA000F60184810E94140EF80182818823E1F00C
:100CB00060E070E015C0F7012081318142815381ED
:100CC000C501B4011C161D063CF40E94B5160E9415
:100CD0009515F601848106C00E94B5160E949515EF
:100CE000F60184850E94140EFFEF6F1A7F0A6301DC
:100CF000CECF81E090E0DF91CF911F910F91FF90D7
:100D0000EF90DF90CF90BF90AF909F908F907F90AB
:100D10006F905F904F9008954F925F926F927F9285
:100D20008F929F92AF92BF92CF92DF92EF92FF92FB
:100D30000F931F93CF93DF93EC0183960E94610A78
:100D40005E0182E8A80EB11CD5018C91882309F4BC
:100D5000EFC07E01B4E7EB0EF11CF70180819181B9
:100D6000019691838083608171818E01045A1F4FA7
:100D7000D801CD90DC90F6018680978080E090E0ED
:100D80000E94C6152B013C01B40180E090E00E9456
:100D9000C615FE01E459FF4F208131814281538104
:100DA0000E94B5169B01AC01C301B2010E94B116AD
:100DB000D60118160CF050C018968D919C91199779
:100DC000892B19F4F501108231C0D60118968D9146
:100DD0009C911997F80191838083FE01EE59FF4F92
:100DE00020813181232B29F4FE01EB57FF4F9183A2
:100DF0008083C12CD12C8B8190E0C816D906B4F425
:100E0000D801ED91FC91C601880F991FE80FF91FD9
:100E10008081918197FD06C040815181B601CE014C
:100E20000E94D005BFEFCB1ADB0AE5CF8E010D572C
:100E30001F4FF801808191810E94B40CFE01EB5795
:100E4000FF4F80819181D8018D939C9311821082F4
:100E5000F701118210826CC018968D919C911997A0
:100E6000892B09F065C0FE01EE59FF4F0190F0811A
:100E7000E02D309709F45CC07E0187E8E80EF11C94
:100E8000D7018D919C910995892B09F474C0F701C4
:100E900080819181019691838083D801ED90FC90AF
:100EA0008AE090E00E94F20EF70191878087D801D6
:100EB000ED91FC9180859185DE01AB57BF4F8D93FD
:100EC0009C9320853185CE018E5A9F4FDC018D91F8
:100ED0009C91D9018D939C9320853185CE018C5AAC
:100EE0009F4FDC018D919C91D90113969C938E9319
:100EF000129720853185CE018A5A9F4FDC018D9152
:100F00009C91D90115969C938E93149720853185D9
:100F1000CE01885A9F4FDC018D919C91D901179683
:100F20009C938E9316970084F185E02D1186108690
:100F3000FE01E858FF4F0190F081E02DDE01A0583E
:100F4000BF4F8D919C9191838083C658DF4FE8817C
:100F5000F9811082DF91CF911F910F91FF90EF9057
:100F6000DF90CF90BF90AF909F908F907F906F90C9
:100F70005F904F900895F5011082DACF1F920F9283
:100F80000FB60F9211242F933F934F935F936F935C
:100F90007F938F939F93AF93BF93EF93FF9384E3DC
:100FA00091E00E948C06FF91EF91BF91AF919F91CC
:100FB0008F917F916F915F914F913F912F910F9002
:100FC0000FBE0F901F90189588599F4FFC014083CA
:100FD0005183628373830895CF93DF93EC01CC59DF
:100FE000DF4FFC01E859FF4F20E030E040E85FE3CD
:100FF00060817181828193810E94C6142881398128
:101000004A815B810E94B516688379838A839B83BA
:10101000DF91CF91089580599F4FFC014083518308
:10102000628373830895CF92DF92EF92FF920F93C2
:101030001F93CF93DF938C017B016C0180E6C80E78
:10104000D11CD601CD91DC91209769F484E090E029
:101050000E94F20EFC01D6018D939C930097B9F487
:101060008FEF9FEF1FC08A819B81892B21F00A801F
:10107000DB81C02DF8CF84E090E00E94F20E9B83CC
:101080008A838A819B81892B59F3EA81FB81F182D2
:10109000E08213821282D801A25ABF4FED93FC93D3
:1010A00081E090E0DF91CF911F910F91FF90EF9041
:1010B000DF90CF900895EF92FF920F931F93CF93FD
:1010C000DF93EC01FC01EE57FF4F1082FC01EC595D
:1010D000FF4F40E050E060E87FE34083518362834C
:1010E0007383FC01E459FF4F408351836283738310
:1010F000FC01E957FF4F1182108240E050E06FEF92
:101100007FEF0E94D005FE01EE59FF4F1182108241
:10111000FE01EA5AFF4F8FEF9FEF91838083FE011C
:10112000EC5AFF4F91838083FE01EE5AFF4F91836B
:101130008083FE01E85AFF4F118210827E0183E80E
:10114000E80EF11CF70180819181FC010085118579
:10115000009729F00E94B40CC801F801F7CFCB57D3
:10116000DF4F19821882F70111821082DF91CF912F
:101170001F910F91FF90EF9008954F925F926F92A1
:101180007F928F929F92AF92BF92CF92DF92EF9217
:10119000FF920F931F93CF93DF932C018B010E943B
:1011A0005B08420182E6880E911CD4010D931C93CA
:1011B000E201C957DF4F88819981F80109950097AD
:1011C00009F4A2C0888199810196998388838AE075
:1011D00090E00E94F20EFC018201065A1F4FD801D6
:1011E0008D939C93009719F48FEF9FEF8DC0D201E0
:1011F000AD57BF4F8D939C935201B2E5AB0EB11C1E
:10120000D5018D919C91918380836201B4E5CB0ED1
:10121000D11CD6018D919C91938382837201B6E596
:10122000EB0EF11CD7018D919C9195838483320143
:10123000B8E56B0E711CD3018D919C9197838683C9
:1012400088819981D401ED91FC910995009709F469
:101250005BC088819981019699838883F801C08158
:10126000D1818AE090E00E94F20E99878887E80198
:10127000A881B9811896ED91FC911997309709F4DE
:10128000B3CFE201CB57DF4FF983E883E5018881D3
:10129000998191838083E6018881998193838283F8
:1012A000E7018881998195838483E301888199810D
:1012B00097838683118610868201045A1F4FF80196
:1012C000B183A083C0E0D0E0F201838190E0C81731
:1012D000D907A4F4D801ED91FC91CE01880F991F94
:1012E000E80FF91F8081918197FD06C040815181EF
:1012F000BE01C2010E94D0052196E6CFEE57FF4FF6
:1013000081E0808381E090E0DF91CF911F910F9188
:10131000FF90EF90DF90CF90BF90AF909F908F9015
:101320007F906F905F904F900895FC01E25AFF4FBD
:10133000A081B1811097E1F012962D913C91139705
:10134000232B31F4DC01A05ABF4F2D913C9104C0F6
:1013500012962D913C911397318320830190F08157
:10136000E02D608171810E94BD0881E090E00895C8
:101370008FEF9FEF089583960C941D0A83960C942B
:10138000210A84E391E00C94A804FC0182EC91E032
:101390009383828388EE93E095838483108E178AEB
:1013A000128686819781968F858F90A3878F11A251
:1013B00012A213A214A249E150E060E070E045A33C
:1013C00056A367A370A70895EF92FF921F93CF9340
:1013D000DF931F92CDB7DEB77C01162F60E0812F1F
:1013E00079830E947C0DF7011083798171830F90BE
:1013F000DF91CF911F91FF90EF900895CF93DF93EE
:10140000EC01672B59F081E090E09F838E83198671
:10141000188662E088810E947C0D06C01F821E82B1
:1014200081E090E0998788878E819F819E8F8D8F44
:1014300098A38F8FDF91CF910895FC017487638704
:101440000895FC01768765870895CF92DF92EF9229
:10145000FF920F931F93CF93DF93EC01062F10E0C1
:101460008F8D98A10817190731F00E94710B69A39D
:101470007AA38BA39CA30E94710BC9A0DAA0EBA056
:10148000FCA06C197D098E099F09CDA0DEA0EFA0FC
:10149000F8A4C616D706E806F90638F48D8D9E8D99
:1014A0000817190711F01E8F0D8F18A30F8F8D8D40
:1014B000DF91CF911F910F91FF90EF90DF90CF9030
:1014C00008958F929F92AF92BF92CF92DF92EF9248
:1014D000FF920F931F93CF93DF93EC0188810E94BB
:1014E000EB0D682FCE010E94250AE82EF12C0E94F8
:1014F000710B2F89388D2115310579F428853985AF
:10150000E216F30609F096C021E030E0388F2F8B09
:10151000698F7A8F8B8F9C8F8DC021303105C9F5F3
:101520002E813F81E216F30619F482E090E02EC08E
:1015300028853985E216F30609F07CC04C815D816F
:101540008A01222717FD2095322FC98CDA8CEB8C6B
:10155000FC8C0C0D1D1D2E1D3F1D0617170728079F
:10156000390708F067C081E08A87EF85F8893097EE
:1015700009F00995E989FA89309709F00995ED890B
:10158000FE89309709F0099586E090E0988F8F8B5F
:1015900051C022303105F9F44A815B814A01AA2405
:1015A00097FCA094BA2C098D1A8D2B8D3C8D800E42
:1015B000911EA21EB31E86169706A806B90618F439
:1015C000EB85FC851EC088859985E816F90691F59E
:1015D00083E090E0DBCF2330310541F48E819F81A1
:1015E000E816F90639F5ED85FE850BC02630310584
:1015F00009F58E819F81E816F90649F41A86EB8970
:10160000FC89309709F00995188E1F8A13C081E074
:101610008A87ED89FE89309769F0DF91CF911F911C
:101620000F91FF90EF90DF90CF90BF90AF909F9081
:101630008F900994DF91CF911F910F91FF90EF90C0
:10164000DF90CF90BF90AF909F908F9008951F92A2
:101650000F920FB60F9211242F933F938F939F9366
:10166000AF93BF938091BE019091BF01A091C00143
:10167000B091C1013091BD0126E0230F2D3720F438
:101680000296A11DB11D05C029E8230F0396A11DD7
:10169000B11D2093BD018093BE019093BF01A09323
:1016A000C001B093C1018091C2019091C301A0918A
:1016B000C401B091C5010196A11DB11D8093C20165
:1016C0009093C301A093C401B093C501BF91AF91A2
:1016D0009F918F913F912F910F900FBE0F901F9070
:1016E00018952FB7F8946091BE017091BF01809159
:1016F000C0019091C1012FBF08953FB7F894809128
:10170000C2019091C301A091C401B091C50126B559
:10171000A89B05C02F3F19F00196A11DB11D3FBF29
:101720006627782F892F9A2F620F711D811D911DB9
:1017300043E0660F771F881F991F4A95D1F70895D8
:10174000CF92DF92EF92FF92CF93DF936B017C01F8
:101750000E947D0BEB01C114D104E104F10479F086
:101760000E947D0B6C1B7D0B683E7340A0F381E0F3
:10177000C81AD108E108F108C851DC4FECCFDF915D
:10178000CF91FF90EF90DF90CF900895789484B53B
:10179000826084BD84B5816084BD85B5826085BD6D
:1017A00085B5816085BDEEE6F0E080818160808353
:1017B000E1E8F0E010828081826080838081816036
:1017C0008083E0E8F0E0808181608083E1E9F0E0FF
:1017D000808182608083808181608083E0E9F0E0A5
:1017E000808181608083E1ECF0E08081846080838F
:1017F000808182608083808181608083E3ECF0E07F
:10180000808181608083E0ECF0E080818260808371
:10181000E2ECF0E0808181608083EAE7F0E08081A3
:101820008460808380818260808380818160808306
:101830008081806880830895CF93DF938230910503
:1018400010F482E090E0E0913002F091310220E06B
:1018500030E0A0E0B0E0309739F140815181481785
:101860005907B8F04817590771F48281938110978E
:1018700029F013969C938E9312972CC0909331026B
:101880008093300227C02115310531F042175307EC
:1018900018F0A901DB0101C0EF019A01BD01DF01D0
:1018A0000280F381E02DD7CF21153105F9F0281BF7
:1018B000390B2430310580F48A819B8161157105D3
:1018C00021F0FB019383828304C0909331028093C3
:1018D0003002FE01329644C0FE01E20FF31F8193F5
:1018E000919322503109398328833AC020912E02E6
:1018F00030912F02232B41F42091060130910701F2
:1019000030932F0220932E02209104013091050183
:101910002115310541F42DB73EB740910801509192
:101920000901241B350BE0912E02F0912F02E217E2
:10193000F307A0F42E1B3F0B2817390778F0AC01F2
:101940004E5F5F4F2417350748F04E0F5F1F5093CF
:101950002F0240932E028193919302C0E0E0F0E0C9
:10196000CF01DF91CF910895CF93DF93009709F4D2
:1019700087C0FC01329713821282C0913002D0914D
:101980003102209781F420813181280F391F809105
:101990002E0290912F028217930779F5F0932F0270
:1019A000E0932E026DC0DE0120E030E0AE17BF07ED
:1019B00050F412964D915C9113979D01411551057C
:1019C00009F1DA01F3CFB383A28340815181840FFF
:1019D000951F8A179B0771F48D919C911197840F25
:1019E000951F02969183808312968D919C911397F7
:1019F000938382832115310529F4F0933102E0931A
:101A000030023EC0D9011396FC93EE9312974D918C
:101A10005D91A40FB51FEA17FB0779F480819181CE
:101A2000840F951F0296D90111969C938E93828103
:101A3000938113969C938E931297E0E0F0E08A8155
:101A40009B81009719F0FE01EC01F9CFCE010296BF
:101A500028813981820F931F20912E0230912F020D
:101A60002817390769F4309729F41092310210923F
:101A7000300202C013821282D0932F02C0932E0232
:101A8000DF91CF91089590E0FC013197EE30F105A0
:101A900090F5EA5AFF4F0C94DE17809180008F7703
:101AA00003C0809180008F7D80938000089584B56D
:101AB0008F7702C084B58F7D84BD0895809190009A
:101AC0008F7707C0809190008F7D03C08091900038
:101AD000877F8093900008958091C0008F7703C026
:101AE0008091C0008F7D8093C00008958091C200D6
:101AF000877F8093C2000895CF93DF9390E0FC012D
:101B0000ED5BFE4F2491FC01EF59FE4F8491882339
:101B100049F190E0880F991FFC01E556FE4FA59111
:101B2000B49183579E4FFC01C591D4919FB7611129
:101B300008C0F8948C91209582238C93888182230D
:101B40000AC0623051F4F8948C91322F309583237F
:101B50008C938881822B888304C0F8948C91822B8B
:101B60008C939FBFDF91CF9108950F931F93CF93D5
:101B7000DF931F92CDB7DEB7282F30E0F901EB5D80
:101B8000FE4F8491F901ED5BFE4F1491F901EF597D
:101B9000FE4F04910023C9F0882321F069830E943D
:101BA000430D6981E02FF0E0EE0FFF1FE357FE4F7A
:101BB000A591B4919FB7F8948C91611103C01095D1
:101BC000812301C0812B8C939FBF0F90DF91CF9118
:101BD0001F910F910895CF93DF93282F30E0F901E3
:101BE000EB5DFE4F8491F901ED5BFE4FD491F9015D
:101BF000EF59FE4FC491CC2391F081110E94430D07
:101C0000EC2FF0E0EE0FFF1FE158FE4FA591B491CD
:101C10002C912D2381E090E021F480E002C080E04F
:101C200090E0DF91CF9108951F93CF93DF93182F0A
:101C3000EB0161E00E947C0D209711F460E004C08C
:101C4000CF3FD10539F461E0812FDF91CF911F9112
:101C50000C94B50DE12FF0E0EB5DFE4F449150E0A8
:101C6000FA013197EE30F10508F062C0EC59FF4FF0
:101C70000C94DE1784B5806884BDC7BD5EC084B592
:101C8000806284BDC8BD59C0809180008068809307
:101C90008000D0938900C09388004FC0809180005D
:101CA000806280938000D0938B00C0938A0045C0EF
:101CB00080919000806880939000D0939900C093A9
:101CC00098003BC080919000806280939000D093F8
:101CD0009B00C0939A0031C08091900088608093EF
:101CE0009000D0939D00C0939C0027C08091C000BD
:101CF00080688093C0008091C0008F7B8093C0007B
:101D0000C093CF001AC08091C00080628093C00051
:101D1000C093D00012C08091C20088608093C2003E
:101D20008091C2008B7F8093C200C093D20005C017
:101D3000C038D1050CF087CF81CFDF91CF911F91B3
:101D400008950E94C60B86EC91E00E94CF110E947C
:101D50004904C0E0D0E00E94A7042097E1F30E946C
:101D60000000F9CFCF93DF9300D000D0CDB7DEB71E
:101D70009B01AC01611571058105910569F06983CD
:101D80003A834B835C830E94611829813A814B819D
:101D90005C810E94BF1703C060E070E0CB010F9030
:101DA0000F900F900F90DF91CF910895CF92DF9217
:101DB000EF92FF926B017C0162177307840795070E
:101DC00064F4CA01B9016C197D098E099F090E944A
:101DD000B20E6C0D7D1D8E1D9F1DFF90EF90DF904C
:101DE000CF9008950C941C0C615030F02091F100BC
:101DF000FC0120830196F8CF289884E68093CD01DA
:101E000008952FB7FC012083F89467706093E90070
:101E10000895CF93DF931F92CDB7DEB7682FCE0121
:101E200001960E94010F8091F20099819FBF0F904F
:101E3000DF91CF910895FF920F931F93CF93DF937C
:101E400000D0CDB7DEB7F62E8A019091CC01992350
:101E500011F057FF03C08FEF9FEF2BC0682FCE010B
:101E600001967A830E94010F8091F20090E0A80110
:101E70007A81801791070CF4AC01EF2DF72FF40E47
:101E800084E6FE1639F028988093CD019091F100F8
:101E90009193F7CF4115510521F08091F2008823ED
:101EA00021F089818FBFCA0104C08BE68093E800CE
:101EB000F8CF0F900F90DF91CF911F910F91FF906E
:101EC0000895CF93DF931F92CDB7DEB741E050E086
:101ED000BE016F5F7F4F0E941B0F019719F489812C
:101EE00090E002C08FEF9FEF0F90DF91CF910895A8
:101EF000CF93DF931F92CDB7DEB7682FCE01019647
:101F00000E94010F9091E800892F807295FF04C014
:101F10009091F20080E4891B99819FBF0F90DF911F
:101F2000CF9108954F925F926F927F928F929F927E
:101F3000AF92BF92CF92DF92EF92FF920F931F93D7
:101F4000CF93DF931F92CDB7DEB7582E7B01A42E1F
:101F5000952E8091CC01882369F0042F152F8AEFEC
:101F6000B82E852D8072782E9AE3892E852D807467
:101F7000682E11C08FEF9FEF53C0852D0E94780F00
:101F8000482E81110CC0BA94A9F361E070E080E0A2
:101F900090E00E94A00B0115110579F737C0282F9A
:101FA00030E0021713070CF4402EC42CD12C0C196E
:101FB0001D09652DCE0101960E94010F772039F091
:101FC0004A948FEF4816B1F01092F100F9CFF70163
:101FD000842D57FE07C0815058F094919093F100E2
:101FE0003196F9CF815020F091919093F100FACF82
:101FF000EC0CFD1C8091E80085FF0FC00115110558
:1020000011F461100AC089818FBFC5CF5D9884E645
:102010008093CE018A2D992D03C08092E800F3CFE2
:102020000F90DF91CF911F910F91FF90EF90DF9074
:10203000CF90BF90AF909F908F907F906F905F9068
:102040004F9008951092E9001092CB011092CA01AE
:102050009093C9018093C8010895CF93DF93FB014A
:1020600020E030E0DEEF24173507A1F187FF02C042
:10207000C49101C0C081A091CA01B091CB0160910F
:10208000C8017091C901A617B707B4F49091E80090
:102090009570E1F39091E80092FD1EC0C093F100AD
:1020A0006091CA017091CB016F5F7F4F6F7377278B
:1020B000672B11F4D093E8006091CA017091CB01B5
:1020C0006F5F7F4F7093CB016093CA012F5F3F4FCB
:1020D0003196C9CFC90102C08FEF9FEFDF91CF9139
:1020E00008951F93CF93DF931F92CDB7DEB7162FBE
:1020F0002091E80022FFFCCF612F79830E94F40E2B
:102100008BEF8093E800812F7981972F0F90DF91DB
:10211000CF911F910895CF93DF931F92CDB7DEB774
:102120001982CE0101960E94E112CE0101960E9411
:10213000A013898190E00F90DF91CF9108951F92B5
:102140000F920FB60F921124EF92FF920F931F93ED
:102150002F933F934F935F936F937F938F939F93AF
:10216000AF93BF93EF93FF93CF93DF93CDB7DEB7DA
:102170006297DEBFCDBF1092E9008091E80083FF37
:10218000E7C068E0CE010A960E94F40E82EF8093C9
:10219000E8009A8597FF05C08091E80080FFFCCF9A
:1021A00003C08EEF8093E800892F807609F0B5C0D8
:1021B0008B85811105C01092F1001092F100C1C011
:1021C000282F2D7F213009F4BCC0853049F480913F
:1021D000E80080FFFCCF8C8580688093E300B1C06D
:1021E000863009F072C02D85E888F988223071F5B3
:1021F00080E090E02A8B0E9422100E948B1099E0D0
:102200008E010F5F1F4FF801392F11923A95E9F7B0
:1022100099832A892A8391E09E8390E898879AEF90
:1022200099872091CA013091CB01275F3F4F3C83B2
:102230002B838D83C7010E94221049E050E0B80132
:1022400080E00E942D100E948B107BC0C7012A8B5A
:102250000E9422102A89223241F482E290E00E94F8
:10226000AB13892B09F06DC070C0213069F48889E7
:102270009989089711F42093C7018091C701882399
:1022800089F06EEA71E016C0233009F05EC08C85DB
:10229000882359F0823061F0813009F056C062ED38
:1022A00071E008C060EC71E005C06CE072E002C053
:1022B0006AEE71E06115710509F447C0FB014491B4
:1022C00050E080E80E942D103CC0873009F43DC0EA
:1022D000883021F481E08093F10033C0893089F5A2
:1022E000937099F5EAEAF1E081E021E096E38093CA
:1022F000E9002093EB0034913093EC009093ED00D3
:102300008F5F3196853099F78EE78093EA001092BF
:10231000EA008C858093CC0114C0888999890E9439
:1023200022108E85811105C0CE010A960E94EC1202
:1023300006C0823051F4CE010A960E94D31388233E
:1023400021F08EEF8093E80003C081E28093EB00E0
:1023500062960FB6F894DEBF0FBECDBFDF91CF916E
:10236000FF91EF91BF91AF919F918F917F916F916D
:102370005F914F913F912F911F910F91FF90EF909F
:102380000F900FBE0F901F9018958093E9008091D9
:10239000F200882319F08AE38093E80008951092F0
:1023A000CC0181E08093D70080EA8093D80082E05E
:1023B00089BD09B400FEFDCF61E070E080E090E0EF
:1023C0000E94A00B80E98093D8008CE08093E2000B
:1023D0001092E000559A209A08951F920F920FB61E
:1023E0000F9211242F933F934F935F936F937F939B
:1023F0008F939F93AF93BF93EF93FF938091E100EF
:102400001092E10083FF0FC01092E90091E09093D9
:10241000EB001092EC0092E39093ED001092CC014F
:1024200098E09093F00082FF26C083E00E94C511DF
:1024300082E00E94090F882321F08FEC91E00E9436
:1024400093128091CE01882339F08091CE01815082
:102450008093CE01882369F08091CD01882359F0C3
:102460008091CD0181508093CD01811104C0289AC3
:1024700002C05D9AF1CFFF91EF91BF91AF919F9113
:102480008F917F916F915F914F913F912F910F901D
:102490000FBE0F901F90189580911D0290911E0203
:1024A00020911F0230912002821B930B8F7399277A
:1024B000089520911D0230911E0280911F0290917B
:1024C00020022817390749F0E0911F02F0912002FD
:1024D000E352FE4F808190E008958FEF9FEF0895C3
:1024E00020911D0230911E0280911F0290912002C6
:1024F00028173907A9F0E0911F02F0912002E3525A
:10250000FE4F808120911F02309120022F5F3F4FAC
:102510002F7333273093200220931F0290E00895F9
:102520008FEF9FEF0895CF93DF93C0911D02D0915D
:102530001E022196CF73DD2780911F029091200209
:10254000C817D90799F082E00E94610F8F3F2FEFE3
:10255000920761F0E0911D02F0911E02E352FE4FDE
:102560008083D0931E02C0931D02DFCFDF91CF91F5
:10257000089583E00C94C5110F931F93CF93DF93BD
:102580001F92CDB7DEB78C0169838091110188233A
:1025900059F041E050E0BE016F5F7F4F83E00E9441
:1025A000920F181619063CF081E090E0F801938331
:1025B000828380E090E00F90DF91CF911F910F9187
:1025C0000895FC0120812E5F208342E450E060E109
:1025D00072E080E80C942D10FC0181819081913A89
:1025E00059F4813209F04BC047E050E06AE071E0F5
:1025F00080E00E942D1045C0913209F040C0803229
:1026000039F467E070E08AE091E00E94711039C00F
:10261000823209F034C082818093110180910A01D5
:1026200090910B01A0910C01B0910D01803B944061
:10263000A105B10531F58091110180FD12C087E738
:1026400097E790930108809300082BE088E190E0E1
:102650000FB6F894A895809360000FBE2093600099
:1026600010C088E10FB6F89480936000109260006B
:102670000FBEA895109201081092000802C080E0D9
:10268000089581E008951092D2011092D10188EE50
:1026900093E0A0E0B0E08093D3019093D401A093A5
:1026A000D501B093D60188E191E09093D001809359
:1026B000CF010895CF92DF92EF92FF920F931F9375
:1026C000CF93DF936C017A01EB01E60EF71E00E079
:1026D00010E0CE15DF0561F06991D601ED91FC9116
:1026E0000190F081E02DC6010995080F191FF1CF67
:1026F000C801DF91CF911F910F91FF90EF90DF9074
:10270000CF900895FF920F931F93CF93DF93EC0127
:10271000F62EE881F9810480F581E02D09958C0180
:10272000E881F9810680F781E02D6F2DCE010995B2
:10273000C8019927DF91CF911F910F91FF900895C4
:10274000FC0120812F5F208349E150E062ED72E0BF
:1027500080E80C942D1045E650E06BEE72E080E8C6
:102760000C942D10EF92FF920F931F93CF93DF9352
:102770001F92CDB7DEB789838B017A0141E050E02B
:10278000BE016F5F7F4F84E00E94920FA701B801E6
:1027900084E40E94920F0F90DF91CF911F910F91CF
:1027A000FF90EF900895FC0191818081813A31F48E
:1027B00081E0913091F0933089F411C0813271F44D
:1027C0009B3021F482818093130105C09A3031F44B
:1027D00082818093120181E00895089580E0089538
:1027E00048E050E082E00C94B213CF93DF93DC0119
:1027F000683818F0E8E7E60F25C0E62FF0E067FF3D
:1028000011C0E058F10981E090E001C0880FEA951D
:10281000EAF714969C911497982B14969C9314970E
:10282000E0E010C0EE5AFD4FE491EE2309F440C001
:10283000E7FF08C014968C911497826014968C93CD
:102840001497EF7716968C9116978E1741F117967D
:102850008C9117978E1719F118968C9118978E17DF
:10286000F1F019968C9119978E17C9F01A968C91E0
:102870001A978E17A1F01B968C911B978E1779F0E3
:1028800080E090E0ED01C80FD91F2E81211102C018
:10289000EE8305C0019686309105A1F709C0BD0100
:1028A0006C5F7F4FCD010E94F01381E090E008C083
:1028B00081E090E013969C938E93129780E090E0D5
:1028C000DF91CF910895683818F0E8E7E60F25C04A
:1028D000E62FF0E067FF12C0E058F10921E030E098
:1028E00001C0220FEA95EAF72095DC0114963C918D
:1028F0001497322314963C93E0E00FC0EE5AFD4F3C
:10290000E491EE2329F1E7FF08C0DC0114962C9135
:1029100014972D7F14962C93EF7720E030E0EE2370
:1029200051F0DC01A20FB31F16964C9116974E136F
:1029300002C016961C922F5F3F4F2630310579F763
:10294000BC016C5F7F4F0E94F01381E090E008951E
:1029500080E090E00895FC011682178210861186AF
:10296000128613861482BC016C5F7F4F0C94F013A7
:1029700010922D0210922402109223028AE291E01A
:10298000909322028093210208955058BB27AA27D2
:102990000ED09CC165D130F06AD120F031F49F3F58
:1029A00011F41EF45AC10EF4E095E7FB50C1E92F73
:1029B000AFD180F3BA17620773078407950718F041
:1029C00071F49EF5C7C10EF4E0950B2EBA2FA02D21
:1029D0000B01B90190010C01CA01A0011124FF27CC
:1029E000591B99F0593F50F4503E68F11A16F040C7
:1029F000A22F232F342F4427585FF3CF46953795C6
:102A00002795A795F0405395C9F77EF41F16BA0B8A
:102A1000620B730B840BBAF09150A1F0FF0FBB1F38
:102A2000661F771F881FC2F70EC0BA0F621F731F81
:102A3000841F48F4879577956795B795F7959E3FDE
:102A400008F0B3CF9395880F08F09927EE0F97956C
:102A50008795089514D1E3954AC10CD037C107D1A9
:102A600040F0FED030F021F45F3F19F0F0C051117A
:102A700072C1F3C04DD198F39923C9F35523B1F333
:102A8000951B550BBB27AA2762177307840738F0DD
:102A90009F5F5F4F220F331F441FAA1FA9F333D03C
:102AA0000E2E3AF0E0E830D091505040E695001CF0
:102AB000CAF729D0FE2F27D0660F771F881FBB1FAC
:102AC000261737074807AB07B0E809F0BB0B802D86
:102AD000BF01FF2793585F4F2AF09E3F510568F0D2
:102AE000B6C039C15F3FECF3983EDCF3869577952D
:102AF0006795B795F7959F5FC9F7880F911D9695D4
:102B0000879597F90895E1E0660F771F881FBB1F2F
:102B1000621773078407BA0720F0621B730B840BDC
:102B2000BA0BEE1F88F7E095089504D06894B111B0
:102B300012C10895F5D088F09F5790F0B92F9927CA
:102B4000B751A0F0D1F0660F771F881F991F1AF0B8
:102B5000BA95C9F712C0B13081F0FCD0B1E0089548
:102B6000F9C0672F782F8827B85F39F0B93FCCF3C9
:102B7000869577956795B395D9F73EF490958095AE
:102B8000709561957F4F8F4F9F4F0895E89409C0CE
:102B900097FB3EF490958095709561957F4F8F4F90
:102BA0009F4F9923A9F0F92F96E9BB279395F695A6
:102BB000879577956795B795F111F8CFFAF4BB0F24
:102BC00011F460FF1BC06F5F7F4F8F4F9F4F16C088
:102BD000882311F096E911C0772321F09EE8872F12
:102BE000762F05C0662371F096E8862F70E060E0CE
:102BF0002AF09A95660F771F881FDAF7880F969547
:102C0000879597F90895990F0008550FAA0BE0E8EA
:102C1000FEEF16161706E807F907C0F0121613069E
:102C2000E407F50798F0621B730B840B950B39F4DE
:102C30000A2661F0232B242B252B21F408950A2644
:102C400009F4A140A6958FEF811D811D089597F984
:102C50009F6780E870E060E008959FEF80EC089542
:102C600000240A941616170618060906089500246B
:102C70000A9412161306140605060895EECF50D0D6
:102C8000E8F3E894E0E0BB279F57F0F02AED3FE03F
:102C900049EC06C0EE0FBB0F661F771F881F28F098
:102CA000B23A62077307840728F0B25A620B730BBB
:102CB000840BE3959A9572F7803830F49A95BB0FA0
:102CC000661F771F881FD2F79048DAC0092E039439
:102CD000000C11F4882352F0BB0F40F4BF2B11F409
:102CE00060FF04C06F5F7F4F8F4F9F4F0895EF933A
:102CF000E0FF06C0A2EA2AED3FE049EC5FEB57DEB9
:102D0000E5DF0F90039401FC9058E4EEF0E0C4C0BE
:102D100057FD9058440F551F59F05F3F71F047958C
:102D2000880F97FB991F61F09F3F79F08795089571
:102D3000121613061406551FF2CF4695F1DF08C090
:102D4000161617061806991FF1CF869571056105AD
:102D500008940895E894BB2766277727CB0197F955
:102D6000089551DF08F48FEF08950BD0AFCF78DFCF
:102D700028F07DDF18F0952309F069CF6ECF11247C
:102D8000EACFC6DFA0F3959FD1F3950F50E0551F12
:102D9000629FF001729FBB27F00DB11D639FAA27B0
:102DA000F00DB11DAA1F649F6627B00DA11D661FFF
:102DB000829F2227B00DA11D621F739FB00DA11D20
:102DC000621F839FA00D611D221F749F3327A00DDA
:102DD000611D231F849F600D211D822F762F6A2F76
:102DE00011249F5750408AF0E1F088234AF0EE0FFB
:102DF000FF1FBB1F661F771F881F91505040A9F708
:102E00009E3F510570F023CFA6CF5F3FECF3983E75
:102E1000DCF3869577956795B795F795E7959F5F6E
:102E2000C1F7FE2B880F911D9695879597F9089508
:102E30009F9325DF0F9007FCEE5F59CFDF93D92FCB
:102E40001EDFE695D7952AED3FE049E45FE3B33A0C
:102E50006207730784079507D7952AF0A2EA49EC21
:102E60009068A5DD33DFE2E0F1E016D0DD0F0BF076
:102E700024D0DD0F0BF49058DF9108959F3F31F07F
:102E8000915020F4879577956795B795880F911D98
:102E90009695879597F908959F938F937F936F9356
:102EA000FF93EF939B01AC0160DFEF91FF910CD09A
:102EB0002F913F914F915F9158CF9B01AC0160E002
:102EC00070E080E89FE3C9CDDF93CF931F930F930A
:102ED000FF92EF92DF927B018C01689405C0DA2E9D
:102EE000EF014FDFFE01E894A591259135914591C1
:102EF0005591AEF3EF015BDDFE019701A801DA9475
:102F000079F7DF90EF90FF900F911F91CF91DF91B4
:102F1000089597FB072E16F4009407D077FD09D08B
:102F20000E94EF1707FC05D03EF4909581959F4FC6
:102F30000895709561957F4F0895A1E21A2EAA1BFE
:102F4000BB1BFD010DC0AA1FBB1FEE1FFF1FA21759
:102F5000B307E407F50720F0A21BB30BE40BF50B56
:102F6000661F771F881F991F1A9469F760957095DF
:102F7000809590959B01AC01BD01CF010895052E70
:102F800097FB1EF400940E94D61757FD07D00E94AD
:102F90009D1707FC03D04EF40C94D617509540951E
:102FA000309521953F4F4F4F5F4F089590958095F5
:102FB000709561957F4F8F4F9F4F0895EE0FFF1FC4
:102FC0000590F491E02D09940E940318A59F900D9F
:102FD000B49F900DA49F800D911D11240895AA1BEC
:102FE000BB1B51E107C0AA1FBB1FA617B70710F0F4
:102FF000A61BB70B881F991F5A95A9F78095909526
:10300000BC01CD010895A29FB001B39FC001A39F51
:10301000700D811D1124911DB29F700D811D112411
:10302000911D08958F929F92AF92BF92CF92DF929F
:10303000EF92FF92CF93DF93EC01688179818A81CF
:103040009B81611571058105910521F464E279ED9B
:103050008BE597E02DE133EF41E050E00E94BF1790
:1030600049015A019B01AC01A7EAB1E40E94E417AF
:103070006B017C01ACEEB4EFA50194010E947218C3
:10308000C60ED71EE81EF91EF7FE06C081E0C81A5C
:10309000D108E10880E8F80AC882D982EA82FB8276
:1030A000C701B6019F77DF91CF91FF90EF90DF903E
:1030B000CF90BF90AF909F908F9008950E9412186C
:1030C000089580E091E00E94121808956093000135
:1030D0007093010180930201909303010895B7FF5B
:1030E0000C94E4170E94E417821B930B0895F89444
:0230F000FFCF10
:1030F2000100000000003202800000E10000000038
:103102000000010100000000BC125A134C127012A0
:103112005912B91293120000000082135A13F513C8
:043122006314AB1473
:00000001FF
