:100000000C94B1010C94D9010C94D9010C94D90130
:100010000C94D9010C94D9010C94D9010C94D901F8
:100020000C94D9010C94D9010C94E3180C949517F5
:100030000C94D9010C94D9010C94D9010C94D901D8
:100040000C94D9010C94D9010C94D9010C94D901C8
:100050000C94D9010C94D9010C94D9010C94850D00
:100060000C94D9010C94D9010C94D9010C94D901A8
:100070000C94D9010C94D9010C94D9010C94D90198
:100080000C94D9010C94D9010C94D9010C94D90188
:100090000C94D9010C94D9010C94D9010C94D90178
:1000A0000C94D9010C9437090C94D901B50FB80FF1
:1000B000AB0FAF0FD90FD90FD90FBC0FC00FC40FA3
:1000C000CA0FCE0FD90FD40FC910CE10D310DD1028
:1000D000271127112711E710F110FB10051112113C
:1000E00027111A1105A84CCDB2D44EB93836A90241
:1000F0000C50B9918688083CA6AAAA2ABE00000026
:10010000803F0664EC1B3C04BC163E3BE5B93CC991
:100110003C37C29E5A3D660498083EEA69AAAA3E48
:10012000000000803F070605040100080A0B0C0DC3
:10013000090000000200080E0000030401000B008B
:1001400000000000000000000000000000000004AB
:1001500008020110408040102040804080080204C6
:10016000018040201002011080102040400404044F
:10017000040403040502020202040302020202064E
:10018000060606060604040202020400000000231C
:1001900000260029002C002F000000000025002868
:1001A000002B002E00310000000000240027002A50
:1001B000002D003000080B000202020100090400BB
:1001C00000010202000005240010010524010101C4
:1001D00004240206052406000107058103100040DF
:1001E00009040100020A00000007050202400000A5
:1001F0000705830240000000C18081C11201000296
:10020000020000404F1B0892000101020001120190
:100210000002000000404F1B089200010102000193
:10022000180353007000610072006B0046007500F7
:100230006E0020002000200022034C0069006C00AA
:100240007900500061006400550053004200200016
:1002500020002000200020002000040309040000EA
:100260000000000000002A2B280000000000000011
:1002700000000000000000000000000000002C9EB4
:10028000B4A0A1A2A434A6A7A5AE362D3738271E48
:100290001F20212223242526B333B62EB7B89F84EE
:1002A00085868788898A8B8C8D8E8F909192939486
:1002B00095969798999A9B9C9D2F3130A3AD3504C4
:1002C00005060708090A0B0C0D0E0F101112131466
:1002D00015161718191A1B1C1DAFB1B0B50009046B
:1002E0000200010300000009210101000122650054
:1002F0000705840340000105010902A1010901A1CC
:1003000000850105091901290315002501950375CB
:100310000181029501750581030501093009310943
:10032000381581257F750895038106C0C005010930
:1003300006A1018502050719E029E71500250175C9
:1003400001950881029501750881039506750815C8
:100350000025650507190029658100C01F0C3912A9
:10036000781A11241FBECFEFDAE0DEBFCDBF11E057
:10037000A0E0B1E0E2E8FCE302C005900D92A434F5
:10038000B107D9F712E0A4E4B1E001C01D92A23494
:10039000B107E1F713E0C2E6D3E004C02297FE0103
:1003A0000E94B31DCC35D107C9F70E9430110C94BF
:1003B0003F1E0C940000109297011092960110922B
:1003C00099011092980184E690E090939B018093AC
:1003D0009A0182E390E090939D0180939C0181E0DB
:1003E00090E0089588EC90E09093970180939601B7
:1003F000109299011092980110929B0110929A010B
:1004000082E390E090939D0180939C0181E090E0D5
:100410000895109297011092960184E690E09093CF
:1004200099018093980110929B0110929A0182E3A6
:1004300090E090939D0180939C0181E090E008956D
:100440002FEF3FEF30939B0120939A013093990156
:100450002093980130939701209396018330910562
:100460001CF028EC30E002C024E130E030939D0124
:1004700020939C0163E070E00E945C1D880F991F2F
:100480008A569E4F20E530E0FC013183208381E0D5
:1004900090E0089580FF0DC010929B0110929A0188
:1004A0001092990110929801109297011092960162
:1004B00013C023E030E040E050E060E070E0CB01AA
:1004C0000E94BF14FB01B996EE0FFF1FEC5BFE4FBD
:1004D00080E990E09183808386E490E090939D0191
:1004E00080939C0181E090E0089580FF0FC084E636
:1004F00090E090939B0180939A019093990180934F
:100500009801909397018093960111C023E030E009
:1005100040E050E060E070E0CB010E94BF14FB01BE
:10052000B996EE0FFF1FEC5BFE4F1182108284E63E
:1005300090E090939D0180939C0181E090E008956C
:10054000CF92DF92EF92FF92BC01882777FD8095D2
:10055000982F0E948C1B2BED3FE049EC51E40E9448
:10056000F11A2BED3FE049E450E40E94851A0E9405
:10057000EE1A20E030E04EEF52E40E94791C20E0B9
:1005800030E04EEF52E40E94861A6B017C0120E0BD
:1005900030E0A9010E94751C20E030E040E05FE3FC
:1005A00087FD05C0C701B6010E94861A04C0C701B5
:1005B000B6010E94851A0E94591B70939B0160939B
:1005C0009A017093990160939801709397016093D9
:1005D000960182E390E090939D0180939C0181E0DD
:1005E00090E0FF90EF90DF90CF900895CF92DF9250
:1005F000EF92FF92CF93DF93EC01BC01882777FD48
:100600008095982F0E948C1B2BED3FE049EC51E424
:100610000E94F11A2BED3FE049E450E40E94851A54
:100620000E94EE1A20E030E04EEF52E40E94791C66
:1006300020E030E04EEF52E40E94861A6B017C010C
:1006400020E030E0A9010E94751C20E030E040E08D
:100650005FE387FD05C0C701B6010E94861A04C08A
:10066000C701B6010E94851A0E94591B7093970119
:1006700060939601CA33D1050CF43FC0BE016A53A2
:100680007109882777FD8095982F0E948C1B2BED90
:100690003FE049EC51E40E94F11A2BED3FE049E4C0
:1006A00050E40E94851A0E94EE1A20E030E04EEFDE
:1006B00052E40E94791C20E030E04EEF52E40E94A8
:1006C000861A6B017C0120E030E0A9010E94751CB4
:1006D00020E030E040E05FE387FD05C0C701B601E0
:1006E0000E94861A04C0C701B6010E94851A0E94A2
:1006F000591B709399016093980182E390E0909365
:100700009D0180939C0181E090E0DF91CF91FF906B
:10071000EF90DF90CF900895CF92DF92EF92FF920B
:10072000CF93DF93EC01BC01882777FD8095982F4C
:100730000E948C1B2BED3FE049EC51E40E94F11A22
:100740002BED3FE049EC5FE30E94861A0E94EE1A0F
:100750006B017C01CE01D7FD0196BC0175956795B3
:10076000882777FD8095982F0E948C1B0E94DC1CA7
:100770009B01AC01C701B6010E94861A20E030E05F
:1007800048E452E40E94791C20E030E048EC52E456
:100790000E94861A6B017C0120E030E0A9010E94D2
:1007A000751C20E030E040E05FE387FD05C0C70135
:1007B000B6010E94861A04C0C701B6010E94851ABC
:1007C0000E94591B70939B0160939A018EE190E007
:1007D00090939D0180939C0181E090E0DF91CF9107
:1007E000FF90EF90DF90CF900895CF92DF92EF923D
:1007F000FF92BC01882777FD8095982F0E948C1B63
:100800002BED3FE049EC51E40E94F11A0E94E21CFA
:100810000E94E21C2BED3FE049EC5FE30E94851A49
:100820000E94EE1A20E030E04EEF52E40E94791C64
:1008300020E030E04EEF52E40E94861A6B017C010A
:1008400020E030E0A9010E94751C20E030E040E08B
:100850005FE387FD05C0C701B6010E94861A04C088
:10086000C701B6010E94851A0E94591B70939B0113
:1008700060939A018EE190E090939D0180939C019A
:1008800081E090E0FF90EF90DF90CF90089584E4B6
:1008900091E00C94DE0B84E491E00C94AB09CF92D0
:1008A000DF92EF92FF920F931F93CF93DF9300910C
:1008B000470110E040E850E060E070E084E491E03F
:1008C0000E945D0984E690E0B8010E945C1D6B0106
:1008D00044E650E0C0E0D0E07A01EC0CFD1CC0170B
:1008E000D107DCF4BE0184E491E00E94490764E68C
:1008F00070E080E090E00E94FE0D40E050E0BE011C
:1009000084E491E00E94490762E370E080E090E0B7
:100910000E94FE0D2196A701DFCFC3E0D0E040E0AA
:1009200050E060E070E084E491E00E945D0964E6DC
:1009300070E080E090E00E94FE0D40E850E060E052
:1009400070E084E491E00E945D0964E670E080E07C
:1009500090E00E94FE0D2197209709F7DF91CF913B
:100960001F910F91FF90EF90DF90CF90089561E07D
:1009700070E084E491E00E9424064DEC5CEC6CE4B1
:100980007EE384E491E00E94A3094DEC5CEC6CEC06
:100990007DE384E491E00E94E9096BED71E084E479
:1009A00091E00E942F0A62EF71E084E491E00E94DE
:1009B0002F0A69E072E084E491E00E942F0A6AE461
:1009C00072E084E491E00E942F0A60EA72E084E41D
:1009D00091E00E942F0A6CE873E084E491E00E94A9
:1009E0002F0A60E272E084E491E00E942F0A65EF32
:1009F00073E084E491E00E942F0A66EF72E084E4E1
:100A000091E00E942F0A65E772E084E491E00E9481
:100A10002F0A60E875E286ED91E00E94381267E4E3
:100A200074E084E491E00E94190C6BE474E084E4C7
:100A300091E00E941C0C0C944F04CF92DF92EF9235
:100A4000FF920F931F93CF93DF93CDB7DEB7279716
:100A50000FB6F894DEBF0FBECDBF86ED91E00E94C9
:100A60004111181619060CF0DDC041E050E0BE013E
:100A7000695F7F4F86ED91E00E94C7158F818C36AC
:100A800071F486ED91E00E94C415162F462F50E0B8
:100A900060E070E084E491E00E945D0914C090ED94
:100AA000980F9330C0F486ED91E00E94C415162F84
:100AB000462F50E08F81682F772767FD709584E47B
:100AC00091E00E9449074AE050E0612F86ED91E0F5
:100AD0000E947113A7C08D32A9F486ED91E00E94A7
:100AE000C4156B017C0186ED91E00E94C415462F70
:100AF00050E0662777276C197D0984E491E00E9415
:100B0000490790C08B3751F586ED91E00E94C415DE
:100B10007A83698386ED91E00E94C4157C836B83A0
:100B200086ED91E00E94C4157E836D838E010F5F78
:100B30001F4FE12CF12CF801419151918F0157FD8C
:100B400005C0B70184E491E00E944907FFEFEF1A66
:100B5000FF0A83E0E816F10471F764C0803729F4D6
:100B600084E491E00E94CA0906C0803569F484E4F7
:100B700091E00E94AB09AB01BC0122E030E086EDC0
:100B800091E00E9489144EC0843729F484E491E0F6
:100B90000E94100AF0CF843529F484E491E00E9489
:100BA000F109E9CF823751F486ED91E00E94C41536
:100BB00070E084E491E00E94B10B0FC0873669F0C9
:100BC000833729F484E491E00E94770A2BC08336AE
:100BD00081F484E491E00E94DE0B84E491E00E94C1
:100BE00081094AE050E0BC0186ED91E00E944C137F
:100BF00019C08936B9F486ED91E00E94C4152091A0
:100C0000620130E0CB01B9010E945C1DBC0184E4AB
:100C100091E00E94040C4AE050E0BC0186ED91E0B6
:100C20000E94881327960FB6F894DEBF0FBECDBF83
:100C3000DF91CF911F910F91FF90EF90DF90CF90B8
:100C4000089583960C94230C4F925F926F927F923B
:100C50008F929F92AF92BF92CF92DF92EF92FF92CC
:100C60000F931F93CF93DF93EC012C0186E7480E7F
:100C7000511C81EC90E0D2018D939C935E01B8E70A
:100C8000AB0EB11C8EEB90E0F501918380837E0169
:100C9000FAE7EF0EF11C89E390E0D7018D939C9366
:100CA0004E01BCE78B0E911C82E790E0F40191832A
:100CB00080836E01F0E8CF0ED11C80E190E0D60178
:100CC0008D939C938E01045B1F4F83E08B83613077
:100CD000710569F585E08C838AE08D838BE08E83D6
:100CE0007983688381E08D8B8DE08E8B82E08E8F9F
:100CF0008BE18F8F89E188A388E0FE01E05BFF4FE5
:100D000080838CE03E01B1E56B0E711CF3018083A2
:100D100061E088E00E94DA0F61E0D3018C910E94CB
:100D2000DA0F84E090E0F8019183808316C08C8311
:100D300089E08D838AE08E831982188281E08D8B11
:100D40008DE08E8B82E08E8F84E18F8F85E188A38A
:100D500082E090E0D8018D939C931A821C8AF8015E
:100D6000608171818E010D5D1F4FC8010E94420C90
:100D700061E070E0C8010E945C0C00E010E08B8133
:100D800090E008171907A4F43E01600E711E61E09F
:100D9000D30114968C910E94DA0F8A81882329F05E
:100DA00061E0F30184850E94DA0F0F5F1F4FE7CFE8
:100DB00000E010E08E8D90E00817190754F4FE0152
:100DC000E00FF11F60E0878D0E94DA0F0F5F1F4F69
:100DD000F1CF00E010E08D8990E00817190754F476
:100DE000FE01E00FF11F61E086890E94DA0F0F5FBC
:100DF0001F4FF1CFD401ED91FC9184E08083FE017F
:100E0000EC58FF4F11821082D501ED91FC91D60173
:100E10008D919C9191838083D701ED91FC911082FB
:100E2000D201ED91FC9185E08083FE01EC59FF4FEA
:100E300040E050E060E87FE3408351836283738346
:100E4000FE01E859FF4F8DEC9CECACECBDE38083D8
:100E50009183A283B383FE01E459FF4F4083518302
:100E600062837383C059DF4F88839983AA83BB83CE
:100E7000DF91CF911F910F91FF90EF90DF90CF9076
:100E8000BF90AF909F908F907F906F905F904F90AA
:100E900008954F925F926F927F928F929F92AF923E
:100EA000BF92CF92DF92EF92FF920F931F93CF9357
:100EB000DF938C01252FFC0143806F3FFFEF7F07FD
:100EC00021F4512CC12CD12C0EC0CB0177FF03C0D3
:100ED000919581959109642D70E00E945C1D6C01D3
:100EE00044244394512CF8018281C42FD22F8823AB
:100EF00069F0CF3FD10519F014F0CFEFD0E0C13049
:100F0000FFEFDF076CF4C1E0DFEF0AC0CF3FD10590
:100F100019F014F0CFEFD0E0D7FF02C0C0E0D0E06E
:100F2000BE01882777FD8095982F0E948C1B4B016E
:100F30005C01780184E6E80EF11CF7012081318123
:100F400042815381C501B4010E94791C20E030E048
:100F50004FE753E40E94751C181684F48FEF90E05D
:100F6000BE010E945C1D882777FD8095982F0E9406
:100F70008C1BF7016083718382839383612C712CB6
:100F8000641475047CF5C00ED11E209769F460E0EE
:100F900070E0F60184810E94A310F8018281882309
:100FA000E1F060E070E015C0F701208131814281FD
:100FB0005381C501B4011C161D063CF40E94791C26
:100FC0000E94591BF601848106C00E94791C0E9470
:100FD000591BF60184850E94A310FFEF6F1A7F0A48
:100FE0006301CECF81E090E0DF91CF911F910F910F
:100FF000FF90EF90DF90CF90BF90AF909F908F9039
:101000007F906F905F904F9008954F925F926F9294
:101010007F928F929F92AF92BF92CF92DF92EF9288
:10102000FF920F931F93CF93DF93EC0183960E945F
:10103000BF0C5E0182E8A80EB11CD5018C918823FB
:1010400009F4EFC07E01B4E7EB0EF11CF7018081DB
:101050009181019691838083608171818E01045A10
:101060001F4FD801CD90DC90F6018680978080E0FC
:1010700090E00E948A1B2B013C01B40180E090E0CB
:101080000E948A1BFE01E459FF4F20813181428179
:1010900053810E94791C9B01AC01C301B2010E94E3
:1010A000751CD60118160CF050C018968D919C91A5
:1010B0001997892B19F4F501108231C0D6011896C1
:1010C0008D919C911997F80191838083FE01EE59CF
:1010D000FF4F20813181232B29F4FE01EB57FF4F75
:1010E00091838083C12CD12C8B8190E0C816D906C6
:1010F000B4F4D801ED91FC91C601880F991FE80F57
:10110000F91F8081918197FD06C040815181B60110
:10111000CE010E944907BFEFCB1ADB0AE5CF8E0153
:101120000D571F4FF801808191810E94120FFE011F
:10113000EB57FF4F80819181D8018D939C93118251
:101140001082F701118210826CC018968D919C91CB
:101150001997892B09F065C0FE01EE59FF4F0190E8
:10116000F081E02D309709F45CC07E0187E8E80E3D
:10117000F11CD7018D919C910995892B09F474C0BC
:10118000F70180819181019691838083D801ED9050
:10119000FC908AE090E00E94DB14F7019187808741
:1011A000D801ED91FC9180859185DE01AB57BF4F51
:1011B0008D939C9320853185CE018E5A9F4FDC0103
:1011C0008D919C91D9018D939C9320853185CE0181
:1011D0008C5A9F4FDC018D919C91D90113969C9361
:1011E0008E93129720853185CE018A5A9F4FDC015C
:1011F0008D919C91D90115969C938E93149720857F
:101200003185CE01885A9F4FDC018D919C91D90187
:1012100017969C938E9316970084F185E02D118686
:101220001086FE01E858FF4F0190F081E02DDE01AD
:10123000A058BF4F8D919C9191838083C658DF4FFA
:10124000E881F9811082DF91CF911F910F91FF907A
:10125000EF90DF90CF90BF90AF909F908F907F9056
:101260006F905F904F900895F5011082DACF1F9232
:101270000F920FB60F9211242F933F934F935F93CA
:101280006F937F938F939F93AF93BF93EF93FF934E
:1012900084E491E00E940508FF91EF91BF91AF9126
:1012A0009F918F917F916F915F914F913F912F917E
:1012B0000F900FBE0F901F901895CF93DF93EC0106
:1012C000CB016D896623C1F09A014F3F510519F09A
:1012D00014F02FEF30E037FF02C020E030E070E084
:1012E0000E945C1D8C0F9D1FB901FC0186890E9424
:1012F000A31081E090E002C08FEF9FEFDF91CF91CC
:101300000895FC01E25AFF4F40815181411551057A
:10131000A9F0FC01E05AFF4F0190F081E02D20E0A0
:1013200030E0E417F50741F0309751F02F5F3F4F61
:101330000280F381E02DF5CFC90108958FEF01C040
:101340008EEF9FEF089588599F4FFC014083518392
:10135000628373830895CF93DF93EC01CC59DF4F01
:10136000FC01E859FF4F20E030E040E85FE3608196
:101370007181828193810E94861A288139814A81F4
:101380005B810E94791C688379838A839B83DF91C8
:10139000CF910895CF93DF93EC01CC59DF4FFC013F
:1013A000E859FF4F208131814281538160E070E034
:1013B00080E89FE30E94851A288139814A815B81F8
:1013C0000E94791C688379838A839B83DF91CF9104
:1013D000089580599F4FFC0140835183628373833A
:1013E0000895CF93DF93EC01C459DF4FFC01E0591E
:1013F000FF4F20E030E040E85FE36081718182814F
:1014000093810E94861A288139814A815B810E94DA
:10141000791C688379838A839B83DF91CF910895B8
:10142000CF93DF93EC01C459DF4FFC01E059FF4F2C
:10143000208131814281538160E070E080E89FE348
:101440000E94851A288139814A815B810E94791C1A
:10145000688379838A839B83DF91CF910895CF92AC
:10146000DF92EF92FF920F931F93CF93DF938C0144
:101470007B016C0180E6C80ED11CD601CD91DC91B8
:10148000209769F484E090E00E94DB14FC01D6010F
:101490008D939C930097B9F48FEF9FEF1FC08A81C3
:1014A0009B81892B21F00A80DB81C02DF8CF84E05D
:1014B00090E00E94DB149B838A838A819B81892B25
:1014C00059F3EA81FB81F182E08213821282D80112
:1014D000A25ABF4FED93FC9381E090E0DF91CF9152
:1014E0001F910F91FF90EF90DF90CF900895EF92B2
:1014F000FF920F931F93CF93DF93EC01FC01EE5704
:10150000FF4F1082FC01EC59FF4F40E050E060E8D3
:101510007FE34083518362837383FC01E459FF4F6F
:101520004083518362837383FC01E957FF4F11822B
:10153000108240E050E06FEF7FEF0E944907FE010C
:10154000EE59FF4F11821082FE01EA5AFF4F8FEFD2
:101550009FEF91838083FE01EC5AFF4F918380833C
:10156000FE01EE5AFF4F91838083FE01E85AFF4F40
:10157000118210827E0183E8E80EF11CF701808160
:101580009181FC0100851185009729F00E94120FBE
:10159000C801F801F7CFCB57DF4F19821882F70146
:1015A00011821082DF91CF911F910F91FF90EF90E8
:1015B00008954F925F926F927F928F929F92AF9217
:1015C000BF92CF92DF92EF92FF920F931F93CF9330
:1015D000DF932C018B010E94770A420182E6880E7C
:1015E000911CD4010D931C93E201C957DF4F8881F0
:1015F0009981F8010995009709F4A2C08881998121
:101600000196998388838AE090E00E94DB14FC01B4
:101610008201065A1F4FD8018D939C93009719F4AD
:101620008FEF9FEF8DC0D201AD57BF4F8D939C932D
:101630005201B2E5AB0EB11CD5018D919C91918305
:1016400080836201B4E5CB0ED11CD6018D919C91B3
:10165000938382837201B6E5EB0EF11CD7018D9165
:101660009C91958384833201B8E56B0E711CD30184
:101670008D919C919783868388819981D401ED9186
:10168000FC910995009709F45BC0888199810196C6
:1016900099838883F801C081D1818AE090E00E941B
:1016A000DB1499878887E801A881B9811896ED91A4
:1016B000FC911997309709F4B3CFE201CB57DF4F74
:1016C000F983E883E5018881998191838083E6012C
:1016D0008881998193838283E701888199819583A9
:1016E0008483E3018881998197838683118610869C
:1016F0008201045A1F4FF801B183A083C0E0D0E0FB
:10170000F201838190E0C817D907A4F4D801ED91C4
:10171000FC91CE01880F991FE80FF91F80819181FC
:1017200097FD06C040815181BE01C2010E94490758
:101730002196E6CFEE57FF4F81E0808381E090E075
:10174000DF91CF911F910F91FF90EF90DF90CF909D
:10175000BF90AF909F908F907F906F905F904F90D1
:101760000895FC01E25AFF4F20813181232B01F1C2
:10177000DC01A05ABF4F2D913C913183208320E0A2
:1017800030E02617370769F0A081B18112964D919C
:101790005C91139751834083452B69F02F5F3F4F36
:1017A000F0CF0190F081E02D608171810C94D90A15
:1017B0008FEF9FEF08958EEF9FEF0895FC01E25A9F
:1017C000FF4FA081B1811097E1F012962D913C91CD
:1017D0001397232B31F4DC01A05ABF4F2D913C917C
:1017E00004C012962D913C91139731832083019070
:1017F000F081E02D608171810E94D90A81E090E042
:1018000008958FEF9FEF0895CF93DF93EC01CB0105
:1018100077FF03C09195819591096E8D70E00E94CC
:101820005C1D8C0F9D1FFC01878DDF91CF910C9467
:10183000721083960C947B0C83960C947F0C84E43A
:1018400091E00C942106FC0182EC91E09383828369
:1018500088EE93E095838483108E178A12868681A2
:101860009781968F858F90A3878F11A212A213A2C2
:1018700014A249E150E060E070E045A356A367A3DD
:1018800070A70895EF92FF921F93CF93DF931F925B
:10189000CDB7DEB77C01162F60E0812F79830E94DF
:1018A000DA0FF7011083798171830F90DF91CF9167
:1018B0001F91FF90EF900895CF93DF93EC01672B7A
:1018C00059F081E090E09F838E831986188662E04C
:1018D00088810E94DA0F06C01F821E8281E090E09C
:1018E000998788878E819F819E8F8D8F98A38F8FF8
:1018F000DF91CF910895FC01748763870895FC01FF
:10190000768765870895CF92DF92EF92FF920F93CB
:101910001F93CF93DF93EC01062F10E08F8D98A1DA
:101920000817190731F00E94CF0D69A37AA38BA382
:101930009CA30E94CF0DC9A0DAA0EBA0FCA06C195B
:101940007D098E099F09CDA0DEA0EFA0F8A4C616E0
:10195000D706E806F90638F48D8D9E8D081719070D
:1019600011F01E8F0D8F18A30F8F8D8DDF91CF91EA
:101970001F910F91FF90EF90DF90CF9008958F927D
:101980009F92AF92BF92CF92DF92EF92FF920F930E
:101990001F93CF93DF93EC0188810E944910682F39
:1019A000CE010E94830CE82EF12C0E94CF0D2F89CE
:1019B000388D2115310579F428853985E216F3062D
:1019C00009F096C021E030E0388F2F8B698F7A8F35
:1019D0008B8F9C8F8DC021303105C9F52E813F81C1
:1019E000E216F30619F482E090E02EC028853985CE
:1019F000E216F30609F07CC04C815D818A01222742
:101A000017FD2095322FC98CDA8CEB8CFC8C0C0DD9
:101A10001D1D2E1D3F1D061717072807390708F043
:101A200067C081E08A87EF85F889309709F00995CA
:101A3000E989FA89309709F00995ED89FE8930978F
:101A400009F0099586E090E0988F8F8B51C0223085
:101A50003105F9F44A815B814A01AA2497FCA094DC
:101A6000BA2C098D1A8D2B8D3C8D800E911EA21ED5
:101A7000B31E86169706A806B90618F4EB85FC85F2
:101A80001EC088859985E816F90691F583E090E0F7
:101A9000DBCF2330310541F48E819F81E816F906B2
:101AA00039F5ED85FE850BC02630310509F58E81AF
:101AB0009F81E816F90649F41A86EB89FC8930976C
:101AC00009F00995188E1F8A13C081E08A87ED8975
:101AD000FE89309769F0DF91CF911F910F91FF90B0
:101AE000EF90DF90CF90BF90AF909F908F90099430
:101AF000DF91CF911F910F91FF90EF90DF90CF90EA
:101B0000BF90AF909F908F9008951F920F920FB645
:101B10000F9211242F933F938F939F93AF93BF9373
:101B20008091CE019091CF01A091D001B091D101CF
:101B30003091CD0126E0230F2D3720F40296A11D10
:101B4000B11D05C029E8230F0396A11DB11D2093E7
:101B5000CD018093CE019093CF01A093D001B0939B
:101B6000D1018091D2019091D301A091D401B09183
:101B7000D5010196A11DB11D8093D2019093D3018F
:101B8000A093D401B093D501BF91AF919F918F9154
:101B90003F912F910F900FBE0F901F9018952FB768
:101BA000F8946091CE017091CF018091D001909115
:101BB000D1012FBF08953FB7F8948091D201909141
:101BC000D301A091D401B091D50126B5A89B05C041
:101BD0002F3F19F00196A11DB11D3FBF6627782F39
:101BE000892F9A2F620F711D811D911D43E0660F91
:101BF000771F881F991F4A95D1F70895CF92DF92DA
:101C0000EF92FF92CF93DF936B017C010E94DB0D7B
:101C1000EB01C114D104E104F10479F00E94DB0D61
:101C20006C1B7D0B683E7340A0F381E0C81AD1089D
:101C3000E108F108C851DC4FECCFDF91CF91FF9064
:101C4000EF90DF90CF900895789484B5826084BD42
:101C500084B5816084BD85B5826085BD85B58160B0
:101C600085BDEEE6F0E0808181608083E1E8F0E010
:101C70001082808182608083808181608083E0E83F
:101C8000F0E0808181608083E1E9F0E08081826022
:101C90008083808181608083E0E9F0E080818160E1
:101CA0008083E1ECF0E080818460808380818260C9
:101CB0008083808181608083E3ECF0E080818160BB
:101CC0008083E0ECF0E0808182608083E2ECF0E0F1
:101CD000808181608083EAE7F0E080818460808396
:101CE0008081826080838081816080838081806840
:101CF00080830895CF93DF938230910510F482E0C2
:101D000090E0E0914002F091410220E030E0A0E05C
:101D1000B0E0309739F14081518148175907B8F048
:101D20004817590771F482819381109729F013960F
:101D30009C938E9312972CC0909341028093400203
:101D400027C02115310531F04217530718F0A901BA
:101D5000DB0101C0EF019A01BD01DF010280F381C7
:101D6000E02DD7CF21153105F9F0281B390B243090
:101D7000310580F48A819B816115710521F0FB0199
:101D80009383828304C09093410280934002FE01BA
:101D9000329644C0FE01E20FF31F819391932250CB
:101DA0003109398328833AC020913E0230913F02A5
:101DB000232B41F4209106013091070130933F021B
:101DC00020933E0220910401309105012115310537
:101DD00041F42DB73EB74091080150910901241BF1
:101DE000350BE0913E02F0913F02E217F307A0F4B9
:101DF0002E1B3F0B2817390778F0AC014E5F5F4F61
:101E00002417350748F04E0F5F1F50933F02409351
:101E10003E028193919302C0E0E0F0E0CF01DF91B8
:101E2000CF910895CF93DF93009709F487C0FC0109
:101E3000329713821282C0914002D09141022097C2
:101E400081F420813181280F391F80913E029091C9
:101E50003F028217930779F5F0933F02E0933E0229
:101E60006DC0DE0120E030E0AE17BF0750F41296DF
:101E70004D915C9113979D014115510509F1DA01CE
:101E8000F3CFB383A28340815181840F951F8A17BA
:101E90009B0771F48D919C911197840F951F029669
:101EA0009183808312968D919C9113979383828363
:101EB0002115310529F4F0934102E09340023EC020
:101EC000D9011396FC93EE9312974D915D91A40F57
:101ED000B51FEA17FB0779F480819181840F951F64
:101EE0000296D90111969C938E93828193811396C9
:101EF0009C938E931297E0E0F0E08A819B8100979B
:101F000019F0FE01EC01F9CFCE010296288139814A
:101F1000820F931F20913E0230913F02281739070C
:101F200069F4309729F4109241021092400202C0E5
:101F300013821282D0933F02C0933E02DF91CF9171
:101F4000089590E0FC013197EE30F10590F5EA5AE2
:101F5000FF4F0C94B11D809180008F7703C080915A
:101F600080008F7D80938000089584B58F7702C0B4
:101F700084B58F7D84BD0895809190008F7707C0D0
:101F8000809190008F7D03C080919000877F809327
:101F9000900008958091C0008F7703C08091C000A9
:101FA0008F7D8093C00008958091C200877F8093C9
:101FB000C2000895CF93DF9390E0FC01E15BFE4FF8
:101FC0002491FC01E359FE4F8491882349F190E06C
:101FD000880F991FFC01E955FE4FA591B4918756D2
:101FE0009E4FFC01C591D4919FB7611108C0F89430
:101FF0008C91209582238C93888182230AC0623041
:1020000051F4F8948C91322F309583238C938881EE
:10201000822B888304C0F8948C91822B8C939FBF71
:10202000DF91CF9108950F931F93CF93DF931F926A
:10203000CDB7DEB7282F30E0F901EF5CFE4F849179
:10204000F901E15BFE4F1491F901E359FE4F049150
:102050000023C9F0882321F069830E94A10F6981C0
:10206000E02FF0E0EE0FFF1FE756FE4FA591B49171
:102070009FB7F8948C91611103C01095812301C022
:10208000812B8C939FBF0F90DF91CF911F910F9168
:102090000895CF93DF93282F30E0F901EF5CFE4FD6
:1020A0008491F901E15BFE4FD491F901E359FE4FB0
:1020B000C491CC2391F081110E94A10FEC2FF0E08C
:1020C000EE0FFF1FE557FE4FA591B4912C912D23E4
:1020D00081E090E021F480E002C080E090E0DF91B8
:1020E000CF910895823108F08251E82FF0E0EB5D46
:1020F000FE4FE49180917B00E3FB222720F930E042
:1021000095E0220F331F9A95E1F78F7D822B809304
:102110007B00E77080910A0120E4829FC0011124B6
:10212000E82BE0937C0080917A00806480937A00B1
:1021300080917A0086FDFCCF809178002091790013
:1021400090E0922B08951F93CF93DF93182FEB010C
:1021500061E00E94DA0F209711F460E004C0CF3FE5
:10216000D10539F461E0812FDF91CF911F910C945B
:102170001310E12FF0E0EF5CFE4F449150E0FA01C4
:102180003197EE30F10508F062C0EC59FF4F0C9426
:10219000B11D84B5806884BDC7BD5EC084B5806252
:1021A00084BDC8BD59C08091800080688093800044
:1021B000D0938900C09388004FC0809180008062D6
:1021C00080938000D0938B00C0938A0045C080919B
:1021D0009000806880939000D0939900C0939800FD
:1021E0003BC080919000806280939000D0939B00D0
:1021F000C0939A0031C080919000886080939000D5
:10220000D0939D00C0939C0027C08091C00080683F
:102210008093C0008091C0008F7B8093C000C093EA
:10222000CF001AC08091C00080628093C000C0932C
:10223000D00012C08091C20088608093C20080915B
:10224000C2008B7F8093C200C093D20005C0C0380B
:10225000D1050CF087CF81CFDF91CF911F910895E9
:102260000E94240E88E292E00E94C5180E94B704E2
:10227000C0E0D0E00E941D052097E1F30E9400001D
:10228000F9CF80912402909125022091260230916D
:102290002702821B930B8F739927089520912402A4
:1022A0003091250280912602909127022817390744
:1022B00049F0E0912602F0912702EC51FE4F808117
:1022C00090E008958FEF9FEF0895209124023091C0
:1022D0002502809126029091270228173907A9F03C
:1022E000E0912602F0912702EC51FE4F808120916F
:1022F0002602309127022F5F3F4F2F7333273093F1
:1023000027022093260290E008958FEF9FEF089513
:10231000CF93DF93C0912402D09125022196CF73F1
:10232000DD278091260290912702C817D90799F0DE
:1023300082E00E9457168F3F2FEF920761F0E091E5
:102340002402F0912502EC51FE4F8083D0932502A8
:10235000C0932402DFCFDF91CF91089583E00C94E6
:10236000BB180F931F93CF93DF931F92CDB7DEB7A8
:102370008C01698380911201882359F041E050E07B
:10238000BE016F5F7F4F83E00E9488161816190602
:102390003CF081E090E0F8019383828380E090E05C
:1023A0000F90DF91CF911F910F910895FC01208133
:1023B0002E5F208342E450E065EB71E080E80C94EE
:1023C0002317FC0181819081913A59F4813209F0FF
:1023D0004BC047E050E06BE071E080E00E942317C3
:1023E00045C0913209F040C0803239F467E070E0B6
:1023F0008BE091E00E94671739C0823209F034C047
:1024000082818093120180910B0190910C01A09127
:102410000D01B0910E01803B9440A105B10531F54D
:102420008091120180FD12C087E797E79093010821
:10243000809300082BE088E190E00FB6F894A8950F
:10244000809360000FBE2093600010C088E10FB63B
:10245000F89480936000109260000FBEA8951092CF
:1024600001081092000802C080E0089581E00895FC
:1024700008951092D9011092D80188EE93E0A0E05F
:10248000B0E08093DA019093DB01A093DC01B0937C
:10249000DD0189E191E09093D7018093D601089501
:1024A000CF92DF92EF92FF920F931F93CF93DF9320
:1024B0006C017A01EB01E60EF71E00E010E0CE158C
:1024C000DF0561F06991D601ED91FC910190F081F9
:1024D000E02DC6010995080F191FF1CFC801DF9142
:1024E000CF911F910F91FF90EF90DF90CF900895C3
:1024F0006115710581F0DB010D900020E9F7AD0158
:1025000041505109461B570BDC01ED91FC910280B3
:10251000F381E02D099480E090E00895DC01ED91D5
:10252000FC910190F081E02D09940F931F93CF93BC
:10253000DF93EC016DE00E948E128C016AE0CE0107
:102540000E948E12800F911FDF91CF911F910F91EA
:1025500008958F929F92AF92BF92CF92DF92EF92A7
:10256000FF920F931F93CF93DF93CDB7DEB7A19761
:102570000FB6F894DEBF0FBECDBF7C01C42EE52F91
:10258000CB01D22E19A221E02D1510F02AE0D22E77
:102590008E010F5D1F4F8D2C912CA12CB12C6C2D19
:1025A0007E2FA50194010E94701D8C2DD29E801952
:1025B0001124015011098A3014F4805D01C0895C36
:1025C000F8018083211531054105510521F0C22E06
:1025D000E32FCA01E4CFB801C7010E947812A19687
:1025E0000FB6F894DEBF0FBECDBFDF91CF911F9124
:1025F0000F91FF90EF90DF90CF90BF90AF909F90A2
:102600008F900895CF92DF92EF92FF920F931F93D6
:10261000CF93DF93EC016A017B012115310579F439
:10262000E881F9810190F081E02D642FDF91CF9155
:102630001F910F91FF90EF90DF90CF9009942A3077
:102640003105E9F477FF1AC06DE20E948E128C0109
:1026500044275527BA014C195D096E097F092AE004
:10266000CE010E94A912800F911FDF91CF911F917F
:102670000F91FF90EF90DF90CF9008952AE0B7017F
:10268000A601CE01DF91CF911F910F91FF90EF90A6
:10269000DF90CF900C94A9120F931F93CF93DF93E9
:1026A000EC019A01AB01662757FD6095762F0E94D9
:1026B00002138C01CE010E949512800F911FDF91B1
:1026C000CF911F910F9108952115310541F4DC013F
:1026D000ED91FC910190F081E02D642F09940C9410
:1026E000A9120F931F93CF93DF93EC019A01462F0A
:1026F00050E060E070E00E9464138C01CE010E9403
:102700009512800F911FDF91CF911F910F91089526
:102710000F931F93CF93DF93EC019A01AB0160E01D
:1027200070E00E9464138C01CE010E949512800F0C
:10273000911FDF91CF911F910F9108954F925F925A
:102740006F927F928F929F92AF92BF92CF92DF92C1
:10275000EF92FF920F931F93CF93DF93EC016A01E7
:102760007B01B22E9A01AB01C701B6010E94021D86
:10277000882319F067E271E027C026013701E89449
:1027800077F82FEF3FEF4FE75FE7C301B2010E94F9
:10279000021D81110DC02FEF3FEF4FE75FE7C3012F
:1027A000B2010E94EA1A18161CF46BE271E00CC028
:1027B0002FEF3FEF4FE75FE4C701B6010E94751CA2
:1027C0001816ACF46FE271E0CE01DF91CF911F914A
:1027D0000F91FF90EF90DF90CF90BF90AF909F90C0
:1027E0008F907F906F905F904F900C9478122FEFA6
:1027F0003FEF4FE75FECC701B6010E94EA1A87FD81
:10280000E1CF20E030E0A901C701B6010E94EA1A39
:1028100087FF0AC06DE2CE010E948E128C01F7FA8A
:10282000F094F7F8F09402C000E010E0A12C60E012
:1028300070E080E09FE3AB1441F020E030E040E244
:1028400051E40E94F11AA394F6CF9B01AC01C70199
:10285000B6010E94861A6B017C010E945E1B2B014F
:102860003C010E948A1B9B01AC01C701B6010E947A
:10287000851A6B017C012AE0B301A201CE010E94FE
:10288000A912080F191FBB2039F063E371E0CE01D4
:102890000E947812080F191F7B2C772041F120E04D
:1028A00030E040E251E4C701B6010E94791C6B019F
:1028B0007C010E94591B4B01AA2497FCA094BA2CBE
:1028C0002AE030E0B501A401CE010E940213080FF6
:1028D000191FC501B4010E948C1B9B01AC01C701EB
:1028E000B6010E94851A6B017C017A94D6CFC8018B
:1028F000DF91CF911F910F91FF90EF90DF90CF90DC
:10290000BF90AF909F908F907F906F905F904F900F
:1029100008950F931F93CF93DF93EC010E949E13B2
:102920008C01CE010E949512800F911FDF91CF91F3
:102930001F910F910895CF93DF9300D000D0CDB7B2
:10294000DEB79B01AC01611571058105910569F048
:1029500069833A834B835C830E94291E29813A81D3
:102960004B815C810E94921D03C060E070E0CB014E
:102970000F900F900F900F90DF91CF910895CF920D
:10298000DF92EF92FF926B017C016217730784075D
:10299000950764F4CA01B9016C197D098E099F0974
:1029A0000E949B146C0D7D1D8E1D9F1DFF90EF904E
:1029B000DF90CF9008950C947A0E0F931F93CF93CE
:1029C000DF93EC010E94CF0D688779878A879B8708
:1029D000E881F9810680F781E02DCE01099597FF06
:1029E00015C00E94CF0D088519852A853B85601B7F
:1029F000710B820B930B0C811D812E813F8160171F
:102A000071078207930720F38FEF9FEFDF91CF913C
:102A10001F910F9108950F931F93CF93DF93EC01B4
:102A20000E94CF0D688779878A879B87E881F98123
:102A30000084F185E02DCE01099597FF15C00E9415
:102A4000CF0D088519852A853B85601B710B820B8C
:102A5000930B0C811D812E813F81601771078207C6
:102A6000930720F38FEF9FEFDF91CF911F910F918D
:102A70000895CF93DF93EC01CE010E940B1597FDD3
:102A800011C08D32910571F09C01205331092A301B
:102A9000310540F0E881F9810680F781E02DCE0113
:102AA0000995EACFDF91CF910895CF92DF92FF92FF
:102AB0000F931F93CF93DF9300D000D0CDB7DEB735
:102AC0006C01062F0E943915FC0197FD4BC020E0D8
:102AD00030E0A901F12C112707FD1095E017F1074F
:102AE000E9F0ED32F105C1F0CF01C0970A97B0F4DB
:102AF000AAE0B0E00E94511D9B01AC01CF01AA27C2
:102B000097FDA095BA2F280F391F4A1F5B1F20532E
:102B100031094109510902C0FF24F394D601ED9116
:102B2000FC910680F781E02DC60129833A834B830F
:102B30005C830995C6010E940B15FC01C097298191
:102B40003A814B815C810A9748F2E017F10731F234
:102B5000FF2061F066277727CB01621B730B840B84
:102B6000950B06C060E070E0CB0102C0CA01B9015C
:102B70000F900F900F900F90DF91CF911F910F91B9
:102B8000FF90DF90CF90089561E00C945515CF929F
:102B9000DF92EF92FF920F931F93CF93DF937C010D
:102BA0006A01EB0100E010E00C151D0549F0C701BA
:102BB0000E94DD1497FD04C089930F5F1F4FF4CF6F
:102BC000C801DF91CF911F910F91FF90EF90DF909F
:102BD000CF900895615030F02091F100FC012083E6
:102BE0000196F8CF289884E680932F0208952FB796
:102BF000FC012083F89467706093E9000895CF93F7
:102C0000DF931F92CDB7DEB7682FCE0101960E94E9
:102C1000F7158091F20099819FBF0F90DF91CF91BE
:102C20000895FF920F931F93CF93DF9300D0CDB7FA
:102C3000DEB7F62E8A0190912E02992311F057FFEC
:102C400003C08FEF9FEF2BC0682FCE0101967A83D0
:102C50000E94F7158091F20090E0A8017A81801718
:102C600091070CF4AC01EF2DF72FF40E84E6FE165D
:102C700039F0289880932F029091F1009193F7CF2B
:102C80004115510521F08091F200882321F08981BE
:102C90008FBFCA0104C08BE68093E800F8CF0F9085
:102CA0000F90DF91CF911F910F91FF900895CF93D7
:102CB000DF931F92CDB7DEB741E050E0BE016F5FFA
:102CC0007F4F0E941116019719F4898190E002C08C
:102CD0008FEF9FEF0F90DF91CF910895CF93DF9308
:102CE0001F92CDB7DEB7682FCE0101960E94F7156F
:102CF0009091E800892F807295FF04C09091F200B6
:102D000080E4891B99819FBF0F90DF91CF91089537
:102D10004F925F926F927F928F929F92AF92BF92EB
:102D2000CF92DF92EF92FF920F931F93CF93DF9397
:102D30001F92CDB7DEB7582E7B01A42E952E809121
:102D40002E02882369F0042F152F8AEFB82E852DC7
:102D50008072782E9AE3892E852D8074682E11C09A
:102D60008FEF9FEF53C0852D0E946E16482E811164
:102D70000CC0BA94A9F361E070E080E090E00E949A
:102D8000FE0D0115110579F737C0282F30E0021725
:102D900013070CF4402EC42CD12C0C191D09652DE1
:102DA000CE0101960E94F715772039F04A948FEFF3
:102DB0004816B1F01092F100F9CFF701842D57FEBB
:102DC00007C0815058F094919093F1003196F9CF5B
:102DD000815020F091919093F100FACFEC0CFD1C02
:102DE0008091E80085FF0FC00115110511F46110F5
:102DF0000AC089818FBFC5CF5D9884E68093300279
:102E00008A2D992D03C08092E800F3CF0F90DF91B7
:102E1000CF911F910F91FF90EF90DF90CF90BF90D7
:102E2000AF909F908F907F906F905F904F9008959C
:102E30001092E90010922D0210922C0290932B0216
:102E400080932A020895CF93DF93FB0120E030E0C6
:102E5000DEEF24173507A1F187FF02C0C49101C03E
:102E6000C081A0912C02B0912D0260912A02709134
:102E70002B02A617B707B4F49091E8009570E1F320
:102E80009091E80092FD1EC0C093F10060912C0269
:102E900070912D026F5F7F4F6F737727672B11F44F
:102EA000D093E80060912C0270912D026F5F7F4FEC
:102EB00070932D0260932C022F5F3F4F3196C9CF44
:102EC000C90102C08FEF9FEFDF91CF9108951F934B
:102ED000CF93DF931F92CDB7DEB7162F2091E80076
:102EE00022FFFCCF612F79830E94EA158BEF80933C
:102EF000E800812F7981972F0F90DF91CF911F915B
:102F00000895CF93DF931F92CDB7DEB71982CE011C
:102F100001960E94D611CE0101960E946019898106
:102F200090E00F90DF91CF9108951F920F920FB60E
:102F30000F921124EF92FF920F931F932F933F93C1
:102F40004F935F936F937F938F939F93AF93BF93B1
:102F5000EF93FF93CF93DF93CDB7DEB76297DEBFDA
:102F6000CDBF1092E9008091E80083FFE7C068E0E0
:102F7000CE010A960E94EA1582EF8093E8009A85B6
:102F800097FF05C08091E80080FFFCCF03C08EEF63
:102F90008093E800892F807609F0B5C08B85811178
:102FA00005C01092F1001092F100C1C0282F2D7FB2
:102FB000213009F4BCC0853049F48091E80080FFDD
:102FC000FCCF8C8580688093E300B1C0863009F027
:102FD00072C02D85E888F988223071F580E090E094
:102FE0002A8B0E9418170E94811799E08E010F5FAB
:102FF0001F4FF801392F11923A95E9F799832A89E1
:103000002A8391E09E8390E898879AEF9987209190
:103010002C0230912D02275F3F4F3C832B838D8301
:10302000C7010E94181749E050E0B80180E00E94F3
:1030300023170E9481177BC0C7012A8B0E94181793
:103040002A89223241F482E290E00E946B19892B96
:1030500009F06DC070C0213069F48889998908979A
:1030600011F42093290280912902882389F06CEFC2
:1030700071E016C0233009F05EC08C85882359F0BA
:10308000823061F0813009F056C060E272E008C021
:103090006EE072E005C06AE572E002C068E372E0CB
:1030A0006115710509F447C0FB01449150E080E8C7
:1030B0000E9423173CC0873009F43DC0883021F4BA
:1030C00081E08093F10033C0893089F5937099F5E0
:1030D000E8EFF1E081E021E096E38093E9002093BE
:1030E000EB0034913093EC009093ED008F5F3196BC
:1030F000853099F78EE78093EA001092EA008C857C
:1031000080932E0214C0888999890E9418178E8591
:10311000811105C0CE010A960E94E11106C08230DD
:1031200051F4CE010A960E949319882321F08EEF64
:103130008093E80003C081E28093EB0062960FB6B3
:10314000F894DEBF0FBECDBFDF91CF91FF91EF911D
:10315000BF91AF919F918F917F916F915F914F91AF
:103160003F912F911F910F91FF90EF900F900FBE05
:103170000F901F9018958093E9008091F2008823AA
:1031800019F08AE38093E800089510922E0281E0FE
:103190008093D70080EA8093D80082E089BD09B48B
:1031A00000FEFDCF61E070E080E090E00E94FE0D47
:1031B00080E98093D8008CE08093E2001092E000D8
:1031C000559A209A08951F920F920FB60F921124CC
:1031D0002F933F934F935F936F937F938F939F931F
:1031E000AF93BF93EF93FF938091E1001092E100C2
:1031F00083FF0FC01092E90091E09093EB001092D2
:10320000EC0092E39093ED0010922E0298E09093E0
:10321000F00082FF26C083E00E94BB1882E00E947B
:10322000FF15882321F086ED91E00E94881180919E
:103230003002882339F0809130028150809330022F
:10324000882369F080912F02882359F080912F0202
:10325000815080932F02811104C0289A02C05D9A88
:10326000F1CFFF91EF91BF91AF919F918F917F919E
:103270006F915F914F913F912F910F900FBE0F90E3
:103280001F901895FF920F931F93CF93DF93EC013C
:10329000F62EE881F9810480F581E02D09958C01F5
:1032A000E881F9810680F781E02D6F2DCE01099527
:1032B000C8019927DF91CF911F910F91FF90089539
:1032C000FC0120812F5F208349E150E06EED72E028
:1032D00080E80C94231745E650E067EF72E080E841
:1032E0000C942317EF92FF920F931F93CF93DF93CA
:1032F0001F92CDB7DEB789838B017A0141E050E0A0
:10330000BE016F5F7F4F84E00E948816A701B8015D
:1033100084E40E9488160F90DF91CF911F910F9146
:10332000FF90EF900895FC0191818081813A31F402
:1033300081E0913091F0933089F411C0813271F4C1
:103340009B3021F482818093140105C09A3031F4BE
:1033500082818093130181E00895089580E00895AB
:1033600048E050E082E00C947219CF93DF93DC01C7
:10337000683818F0E8E7E60F25C0E62FF0E067FFB1
:1033800011C0E058F10981E090E001C0880FEA9592
:10339000EAF714969C911497982B14969C93149783
:1033A000E0E010C0E25AFD4FE491EE2309F440C082
:1033B000E7FF08C014968C911497826014968C9342
:1033C0001497EF7716968C9116978E1741F11796F2
:1033D0008C9117978E1719F118968C9118978E1754
:1033E000F1F019968C9119978E17C9F01A968C9155
:1033F0001A978E17A1F01B968C911B978E1779F058
:1034000080E090E0ED01C80FD91F2E81211102C08C
:10341000EE8305C0019686309105A1F709C0BD0174
:103420006C5F7F4FCD010E94B01981E090E008C031
:1034300081E090E013969C938E93129780E090E049
:10344000DF91CF910895683818F0E8E7E60F25C0BE
:10345000E62FF0E067FF12C0E058F10921E030E00C
:1034600001C0220FEA95EAF72095DC0114963C9101
:103470001497322314963C93E0E00FC0E25AFD4FBC
:10348000E491EE2329F1E7FF08C0DC0114962C91AA
:1034900014972D7F14962C93EF7720E030E0EE23E5
:1034A00051F0DC01A20FB31F16964C9116974E13E4
:1034B00002C016961C922F5F3F4F2630310579F7D8
:1034C000BC016C5F7F4F0E94B01981E090E00895CD
:1034D00080E090E00895FC01168217821086118624
:1034E000128613861482BC016C5F7F4F0C94B01956
:1034F00010923D02109234021092330289E391E05F
:10350000909332028093310208955058BB27AA2726
:103510000ED0A0C169D130F06ED120F031F49F3FC0
:1035200011F41EF45EC10EF4E095E7FB54C1E92FDF
:10353000B3D180F3BA17620773078407950718F0B1
:1035400071F49EF5CBC10EF4E0950B2EBA2FA02D91
:103550000B01B90190010C01CA01A0011124FF2740
:10356000591B99F0593F50F4503E68F11A16F0403B
:10357000A22F232F342F4427585FF3CF469537953A
:103580002795A795F0405395C9F77EF41F16BA0BFF
:10359000620B730B840BBAF09150A1F0FF0FBB1FAD
:1035A000661F771F881FC2F70EC0BA0F621F731FF6
:1035B000841F48F4879577956795B795F7959E3F53
:1035C00008F0B3CF9395880F08F09927EE0F9795E1
:1035D00087950895DCD008F481E0089514D1E3952F
:1035E0004AC10CD037C107D140F0FED030F021F4F1
:1035F0005F3F19F0F0C0511172C1F3C04DD198F383
:103600009923C9F35523B1F3951B550BBB27AA2763
:1036100062177307840738F09F5F5F4F220F331FD5
:10362000441FAA1FA9F333D00E2E3AF0E0E830D0A1
:1036300091505040E695001CCAF729D0FE2F27D0A4
:10364000660F771F881FBB1F261737074807AB0772
:10365000B0E809F0BB0B802DBF01FF2793585F4FE7
:103660002AF09E3F510568F0B6C039C15F3FECF3C8
:10367000983EDCF3869577956795B795F7959F5FAC
:10368000C9F7880F911D9695879597F90895E1E000
:10369000660F771F881FBB1F621773078407BA075F
:1036A00020F0621B730B840BBA0BEE1F88F7E095BA
:1036B000089504D06894B11112C10895F5D088F02E
:1036C0009F5790F0B92F9927B751A0F0D1F0660F0E
:1036D000771F881F991F1AF0BA95C9F712C0B13029
:1036E00081F0FCD0B1E00895F9C0672F782F8827CA
:1036F000B85F39F0B93FCCF3869577956795B39568
:10370000D9F73EF490958095709561957F4F8F4FD6
:103710009F4F0895E89409C097FB3EF490958095DB
:10372000709561957F4F8F4F9F4F9923A9F0F92F87
:1037300096E9BB279395F695879577956795B79505
:10374000F111F8CFFAF4BB0F11F460FF1BC06F5FEB
:103750007F4F8F4F9F4F16C0882311F096E911C0FD
:10376000772321F09EE8872F762F05C0662371F01E
:1037700096E8862F70E060E02AF09A95660F771F32
:10378000881FDAF7880F9695879597F90895990F0E
:103790000008550FAA0BE0E8FEEF16161706E8071B
:1037A000F907C0F012161306E407F50798F0621B3C
:1037B000730B840B950B39F40A2661F0232B242B11
:1037C000252B21F408950A2609F4A140A6958FEF30
:1037D000811D811D089597F99F6780E870E060E082
:1037E00008959FEF80EC089500240A94161617069A
:1037F00018060906089500240A94121613061406E2
:1038000005060895EECF50D0E8F3E894E0E0BB273A
:103810009F57F0F02AED3FE049EC06C0EE0FBB0FDA
:10382000661F771F881F28F0B23A62077307840764
:1038300028F0B25A620B730B840BE3959A9572F7DA
:10384000803830F49A95BB0F661F771F881FD2F718
:103850009048DEC0092E0394000C11F4882352F026
:10386000BB0F40F4BF2B11F460FF04C06F5F7F4FAC
:103870008F4F9F4F0895EF93E0FF06C0A2EA2AED15
:103880003FE049EC5FEB53DEE5DF0F90039401FC72
:103890009058E4EEF0E0C8C057FD9058440F551F13
:1038A00059F05F3F71F04795880F97FB991F61F0C2
:1038B0009F3F79F087950895121613061406551F39
:1038C000F2CF4695F1DF08C0161617061806991FA5
:1038D000F1CF86957105610508940895E894BB279A
:1038E00066277727CB0197F9089551DF08F48FEF0A
:1038F00008950BD0AFCF78DF28F07DDF18F0952347
:1039000009F069CF6ECF1124EACFC6DFA0F3959FEF
:10391000D1F3950F50E0551F629FF001729FBB27B6
:10392000F00DB11D639FAA27F00DB11DAA1F649F62
:103930006627B00DA11D661F829F2227B00DA11D15
:10394000621F739FB00DA11D621F839FA00D611D9B
:10395000221F749F3327A00D611D231F849F600DBC
:10396000211D822F762F6A2F11249F5750408AF0F5
:10397000E1F088234AF0EE0FFF1FBB1F661F771F81
:10398000881F91505040A9F79E3F510570F023CFFA
:10399000A6CF5F3FECF3983EDCF38695779567956D
:1039A000B795F795E7959F5FC1F7FE2B880F911D9F
:1039B0009695879597F908959F9325DF0F9007FCBB
:1039C000EE5F59CFDF93D92F1EDFE695D7952AED0D
:1039D0003FE049E45FE3B33A620773078407950762
:1039E000D7952AF0A2EA49EC9068A1DD33DFE2E046
:1039F000F1E01AD0DD0F0BF028D0DD0F0BF490585A
:103A0000DF910895C4DE880B990B08959F3F31F034
:103A1000915020F4879577956795B795880F911DFC
:103A20009695879597F908959F938F937F936F93BA
:103A3000FF93EF939B01AC015CDFEF91FF910CD002
:103A40002F913F914F915F9154CF9B01AC0160E06A
:103A500070E080E89FE3C5CDDF93CF931F930F9372
:103A6000FF92EF92DF927B018C01689405C0DA2E01
:103A7000EF014BDFFE01E894A59125913591459129
:103A80005591AEF3EF0153DDFE019701A801DA94E1
:103A900079F7DF90EF90FF900F911F91CF91DF9119
:103AA00008950E94B71DA59F900DB49F900DA49FEF
:103AB000800D911D1124089597FB072E16F4009494
:103AC00007D077FD09D00E94C61D07FC05D03EF443
:103AD000909581959F4F0895709561957F4F0895BA
:103AE000A1E21A2EAA1BBB1BFD010DC0AA1FBB1F02
:103AF000EE1FFF1FA217B307E407F50720F0A21B74
:103B0000B30BE40BF50B661F771F881F991F1A94E0
:103B100069F760957095809590959B01AC01BD010A
:103B2000CF010895052E97FB1EF400940E94A91D55
:103B300057FD07D00E94701D07FC03D04EF40C9473
:103B4000A91D50954095309521953F4F4F4F5F4FA0
:103B5000089590958095709561957F4F8F4F9F4FF9
:103B60000895EE0FFF1F0590F491E02D0994A29F98
:103B7000B001B39FC001A39F700D811D1124911D41
:103B8000B29F700D811D1124911D0895AA1BBB1BAE
:103B900051E107C0AA1FBB1FA617B70710F0A61B4D
:103BA000B70B881F991F5A95A9F780959095BC016E
:103BB000CD0108958F929F92AF92BF92CF92DF92E4
:103BC000EF92FF92CF93DF93EC01688179818A8134
:103BD0009B81611571058105910521F464E279ED00
:103BE0008BE597E02DE133EF41E050E00E94921D1C
:103BF00049015A019B01AC01A7EAB1E40E94511DA1
:103C00006B017C01ACEEB4EFA50194010E943A1E59
:103C1000C60ED71EE81EF91EF7FE06C081E0C81AC0
:103C2000D108E10880E8F80AC882D982EA82FB82DA
:103C3000C701B6019F77DF91CF91FF90EF90DF90A2
:103C4000CF90BF90AF909F908F9008950E94DA1D03
:103C5000089580E091E00E94DA1D089560930001CC
:103C60007093010180930201909303010895B7FFBF
:103C70000C94511D0E94511D821B930B0895F894C2
:023C8000FFCF74
:103C8200010000000000420280000100E10000008B
:103C9200000000010100000000B111501241116545
:103CA200114E11AE1188116E616E00696E66006F61
:103CB2007666002E000000000042195012B519234A
:043CC2001A6B1A005F
:00000001FF
