:100000000C9463010C948B010C948B010C948B0168
:100010000C948B010C948B010C948B010C948B0130
:100020000C948B010C948B010C9480060C944C0561
:100030000C948B010C948B010C948B010C948B0110
:100040000C948B010C948B010C948B010C948B0100
:100050000C948B010C948B010C948B010C94A501D6
:100060000C948B010C948B010C948B010C948B01E0
:100070000C948B010C948B010C948B010C948B01D0
:100080000C948B010C948B010C948B010C948B01C0
:100090000C948B010C948B010C948B010C948B01B0
:1000A0000C948B010C948B010C948B01A802AB0275
:1000B0009A029E02A402CC02CC02CC02AF02B3028E
:1000C000B702BD02C102CC02C70200000002000953
:1000D0000F0000030401000C0000000000000000FD
:1000E00000000000000000000408020110408040F1
:1000F000102040804080080204018040201002014E
:10010000108010204040040404040403040502028B
:1001100002020403020202020606060606060404A0
:100120000202020400000000250028002B002E001F
:10013000310000000000240027002A002D003000BC
:1001400000C18081C112010002020000404F1B0863
:100150009200010102000112010002000000404F64
:100160001B0892000101020001537061726B467519
:100170006E004C696C795061642055534200040351
:100180000904080B00020202010009040000010238
:1001900002000005240010010524010101042402CD
:1001A000060524060001070581031000400904012B
:1001B00000020A0000000705020240000007058354
:1001C0000240000000000000000000002A2B280070
:1001D000000000000000000000000000000000001F
:1001E000000000002C9EB4A0A1A2A434A6A7A5AE36
:1001F000362D3738271E1F20212223242526B333EE
:10020000B62EB7B89F8485868788898A8B8C8D8E19
:100210008F909192939495969798999A9B9C9D2FE5
:100220003130A3AD350405060708090A0B0C0D0E85
:100230000F101112131415161718191A1B1C1DAFC5
:10024000B1B0B5000904020001030000000921015A
:100250000100012265000705840340000105010932
:1002600002A1010901A10085010509190129031550
:10027000002501950375018102950175058103052E
:10028000010930093109381581257F7508950381E9
:1002900006C0C005010906A1018502050719E0296C
:1002A000E715002501750195088102950175088102
:1002B0000395067508150025650507190029658150
:1002C00000C0B407070911241FBECFEFDAE0DEBF7C
:1002D000CDBF11E0A0E0B1E0E8E8F2E102C0059096
:1002E0000D92AE32B107D9F721E0AEE2B1E001C024
:1002F0001D92AD39B207E1F712E0C6ECD2E004C0BE
:100300002297FE010E943E09C23CD107C9F70E9414
:100310003D030C9442090C94000061E08DE00C94C4
:10032000CD0260E08DE00E94060364EF71E080E0A2
:1003300090E00E94120261E08DE00E94060364EFEB
:1003400071E080E090E00C9412021F920F920FB6C1
:100350000F9211242F933F938F939F93AF93BF934B
:1003600080912F0190913001A0913101B091320123
:1003700030912E0126E0230F2D3720F40296A11D87
:10038000B11D05C029E8230F0396A11DB11D2093BF
:100390002E0180932F0190933001A0933101B093EF
:1003A00032018091330190913401A0913501B091D7
:1003B00036010196A11DB11D809333019093340144
:1003C000A0933501B0933601BF91AF919F918F916A
:1003D0003F912F910F900FBE0F901F9018953FB730
:1003E000F8948091330190913401A0913501B0913E
:1003F000360126B5A89B05C02F3F19F00196A11D17
:10040000B11D3FBF6627782F892F9A2F620F711D6C
:10041000811D911D43E0660F771F881F991F4A9524
:10042000D1F70895CF92DF92EF92FF92CF93DF93AF
:100430006B017C010E94EF01EB01C114D104E104C6
:10044000F10489F00E94F4060E94EF016C1B7D0B01
:10045000683E734090F381E0C81AD108E108F108C2
:10046000C851DC4FEACFDF91CF91FF90EF90DF9042
:10047000CF900895789484B5826084BD84B58160FE
:1004800084BD85B5826085BD85B5816085BDEEE69C
:10049000F0E0808181608083E1E8F0E0108280817B
:1004A00082608083808181608083E0E8F0E08081E9
:1004B00081608083E1E9F0E08081826080838081D7
:1004C00081608083E0E9F0E0808181608083E1ECFD
:1004D000F0E080818460808380818260808380817D
:1004E00081608083E3ECF0E0808181608083E0ECD8
:1004F000F0E0808182608083E2ECF0E080818160C6
:100500008083EAE7F0E0808184608083808182607C
:10051000808380818160808380818068808308956A
:1005200090E0FC013197EF30F105B0F5EA5AFF4F4A
:100530000C943C09809180008F7703C080918000EB
:100540008F7D80938000089580918000877FF9CF10
:1005500084B58F7702C084B58F7D84BD0895809166
:1005600090008F7707C0809190008F7D03C08091AD
:100570009000877F8093900008958091C0008F77CE
:1005800003C08091C0008F7D8093C000089580914A
:10059000C200877F8093C2000895CF93DF9390E0DD
:1005A000FC01E851FF4F2491FC01EA5FFE4F84916A
:1005B000882349F190E0880F991FFC01EE5CFE4F03
:1005C000A591B4918C5D9E4FFC01C591D4919FB7CC
:1005D000611108C0F8948C91209582238C938881B6
:1005E00082230AC0623051F4F8948C91322F3095F6
:1005F00083238C938881822B888304C0F8948C9108
:10060000822B8C939FBFDF91CF9108950F931F93FF
:10061000CF93DF931F92CDB7DEB7282F30E0F901DB
:10062000E653FF4F8491F901E851FF4F1491F9010E
:10063000EA5FFE4F04910023C9F0882321F069830B
:100640000E9490026981E02FF0E0EE0FFF1FEC5D49
:10065000FE4FA591B4919FB7F8948C91611103C09E
:100660001095812301C0812B8C939FBF0F90DF9148
:10067000CF911F910F91089508950E943A020E9410
:100680003C0387E391E00E94D6060E948D01C0E002
:10069000D0E00E9491012097E1F30E940000F9CF81
:1006A00040913B0150913C012091390130913A0138
:1006B00042175307B4F49091E8009570E1F39091DC
:1006C000E80092FD19C08093F10080913B01909168
:1006D0003C0101968F739927892B19F48EEF809333
:1006E000E80080913B0190913C01019690933C0180
:1006F00080933B0181E0089580E00895CF92DF92DE
:10070000FF920F931F93CF93DF931F92CDB7DEB766
:10071000082F162F862F880F8E5F99830E94500313
:1007200083E00E945003F02EC02E9981D92E8C2D8B
:100730008F19811778F4F60184910E945003082FD5
:1007400080E00E9450038023FFEFCF1ADF0A81115F
:10075000EECF01C081E00F90DF91CF911F910F91FB
:10076000FF90DF90CF900895615030F02091F1001C
:10077000FC0120830196F8CF289884E680933E01FF
:1007800008952FB7FC012083F89467706093E90007
:100790000895CF93DF931F92CDB7DEB7682FCE01B8
:1007A00001960E94C1038091F20099819FBF0F9032
:1007B000DF91CF910895FF920F931F93CF93DF9313
:1007C00000D0CDB7DEB7F62E8A0190913D01992376
:1007D00011F057FF03C08FEF9FEF2BC0682FCE01A2
:1007E00001967A830E94C1038091F20090E0A801F3
:1007F0007A81801791070CF4AC01EF2DF72FF40EDE
:1008000084E6FE1639F0289880933E019091F1001D
:100810009193F7CF4115510521F08091F200882383
:1008200021F089818FBFCA0104C08BE68093E80064
:10083000F8CF0F900F90DF91CF911F910F91FF9004
:100840000895CF93DF931F92CDB7DEB741E050E01C
:10085000BE016F5F7F4F0E94DB03019719F489810E
:1008600090E002C08FEF9FEF0F90DF91CF9108953E
:10087000CF93DF931F92CDB7DEB7682FCE010196DD
:100880000E94C1039091E800892F807295FF04C0F7
:100890009091F20080E4891B99819FBF0F90DF91B6
:1008A000CF9108956F927F928F929F92AF92BF9255
:1008B000CF92DF92EF92FF920F931F93CF93DF932C
:1008C0001F92CDB7DEB7782E7B01C42EB52E809156
:1008D0003D01882369F0042F152F8AEFD82E872D2C
:1008E0008072982E9AE3A92E872D8074882E11C0CD
:1008F0008FEF9FEF57C0872D0E943804682E81111B
:100900000CC0DA94A9F361E070E080E090E00E940E
:1009100012020115110579F73BC0282F30E00217AC
:1009200013070CF4602E672DCE0101960E94C103BF
:100930008091E80085FF29C0262D30E0021B130BB3
:10094000992039F06A948FEF6816B1F01092F10097
:10095000F9CFF701862D77FE07C0815058F09491AA
:100960009093F1003196F9CF815020F091919093BE
:10097000F100FACFE20EF31E8091E80085FF0FC070
:100980000115110511F481100AC089818FBFC1CFF3
:100990005D9884E680933F018C2D9B2D03C0A0922F
:1009A000E800F3CF0F90DF91CF911F910F91FF904F
:1009B000EF90DF90CF90BF90AF909F908F907F90FF
:1009C0006F9008951092E90010923C0110923B0143
:1009D00090933A01809339010895CF92DF92FF926C
:1009E0000F931F93CF93DF9300D0CDB7DEB7F82ED0
:1009F0008A016B0101151105B1F0F601F7FE02C085
:100A0000849101C0808149835A830E945003015020
:100A10001109FFEFCF1ADF0A49815A818111EACF0C
:100A20008FEF9FEF01C0CA010F900F90DF91CF9120
:100A30001F910F91FF90DF90CF9008951F93CF9358
:100A4000DF931F92CDB7DEB7162F2091E80022FF6B
:100A5000FCCF612F79830E94B4038BEF8093E80071
:100A6000812F7981972F0F90DF91CF911F9108955A
:100A7000CF93DF931F92CDB7DEB71982CE010196D7
:100A80000E945207CE0101960E94EF07898190E0F3
:100A90000F90DF91CF9108951F920F920FB60F9292
:100AA0001124EF92FF920F931F932F933F934F9335
:100AB0005F936F937F938F939F93AF93BF93EF93C6
:100AC000FF93CF93DF93CDB7DEB76297DEBFCDBF85
:100AD0001092E9008091E80083FFEBC068E0CE014E
:100AE0000A960E94B40382EF8093E8009A8597FFEC
:100AF00005C08091E80080FFFCCF03C08EEF80939B
:100B0000E800892F807609F0B9C08B85811105C076
:100B10001092F1001092F100C5C0282F2D7F2130D6
:100B200009F4C0C0853049F48091E80080FFFCCF13
:100B30008C8580688093E300B5C0863009F076C06C
:100B40002D85E888F988223071F580E090E02A8BC5
:100B50000E94E2040E94380599E08E010F5F1F4F4A
:100B6000F801392F11923A95E9F799832A892A8356
:100B700091E09E8390E898879AEF998720913B01B6
:100B800030913C01275F3F4F3C832B838D83C7010E
:100B90000E94E20449E050E0B80180E00E94ED04C8
:100BA0000E9438057FC0C7012A8B0E94E2042A896F
:100BB000223241F482E290E00E94FA07892B09F088
:100BC00071C074C0213069F488899989089711F43B
:100BD0002093380180913801811118C067E571E0D8
:100BE0001AC0233009F062C08C85882391F08230CE
:100BF00021F46BE082E791E006C0813009F056C035
:100C000068E089E691E00E947E034AC065E471E0F5
:100C100002C06EE771E06115710509F447C0FB0180
:100C2000449150E080E80E94ED043CC0873009F414
:100C30003DC0883021F481E08093F10033C08930D9
:100C400089F5937099F5E1E4F1E081E021E096E324
:100C50008093E9002093EB0034913093EC00909363
:100C6000ED008F5F3196853099F78EE78093EA002B
:100C70001092EA008C8580933D0114C0888999897F
:100C80000E94E2048E85811105C0CE010A960E9461
:100C90005D0706C0823051F4CE010A960E942208F8
:100CA000882321F08EEF8093E80003C081E28093D7
:100CB000EB0062960FB6F894DEBF0FBECDBFDF919A
:100CC000CF91FF91EF91BF91AF919F918F917F91C4
:100CD0006F915F914F913F912F911F910F91FF90D5
:100CE000EF900F900FBE0F901F9018958093E90022
:100CF0008091F200882319F08AE38093E800089538
:100D00001F920F920FB60F9211242F933F934F9380
:100D10005F936F937F938F939F93AF93BF93EF9363
:100D2000FF938091E1001092E10083FF0FC01092C9
:100D3000E90091E09093EB001092EC0092E3909325
:100D4000ED0010923D0198E09093F00082FF1DC0ED
:100D500083E00E94760680913F01882339F08091DC
:100D60003F01815080933F01882369F080913E01CB
:100D7000882359F080913E01815080933E0181117A
:100D800004C0289A02C05D9AF1CFFF91EF91BF9104
:100D9000AF919F918F917F916F915F914F913F9113
:100DA0002F910F900FBE0F901F90189510923D013C
:100DB00081E08093D70080EA8093D80082E089BDEB
:100DC00009B400FEFDCF61E070E080E090E00E9499
:100DD000120280E98093D8008CE08093E2001092A8
:100DE000E000559A209A08950895CF93DF931F92BB
:100DF000CDB7DEB76983DC01ED91FC910280F38110
:100E0000E02D41E050E0BE016F5F7F4F09950F90EC
:100E1000DF91CF910895CF93DF93EC018C859D8571
:100E200097FF05C082E00E9421049D878C878C85F6
:100E30009D85DF91CF91089583E00C947606FC01A7
:100E40008485958597FD06C082E00E94C90390E0E5
:100E50000196089582E00E94C90390E00895FC0184
:100E60008485958597FD05C02FEF3FEF3587248753
:100E7000089582E00C942104CF93DF93EC018091DC
:100E80000D01882331F083E00E94520418161906E0
:100E900034F081E090E09B838A8380E090E0DF91F2
:100EA000CF910895FC0120812E5F208342E450E021
:100EB00062E871E080E80C94ED04FC01818190818E
:100EC000913A59F4813209F04BC047E050E066E0B6
:100ED00071E080E00E94ED0445C0913209F040C00D
:100EE000803239F467E070E086E091E00E941E05F0
:100EF00039C0823209F034C0828180930D01809123
:100F0000060190910701A0910801B0910901803B71
:100F10009440A105B10531F580910D0180FD12C00D
:100F200087E797E790930108809300082BE088E11A
:100F300090E00FB6F894A895809360000FBE2093C0
:100F4000600010C088E10FB6F894809360001092A2
:100F500060000FBEA895109201081092000802C010
:100F600080E0089581E008951092430110924201BB
:100F700088EE93E0A0E0B0E08093440190934501B7
:100F8000A0934601B093470184E191E09093410121
:100F9000809340018FEF9FEF90934D0180934C0120
:100FA0000895FF920F931F93CF93DF93EC01F62EDA
:100FB000E881F9810480F581E02D09958C01E881B3
:100FC000F9810680F781E02D6F2DCE010995C801CA
:100FD0009927DF91CF911F910F91FF900895FC0108
:100FE00020812F5F208349E150E064E472E080E8D3
:100FF0000C94ED0445E650E06DE572E080E80C9459
:10100000ED04EF92FF920F931F93CF93DF931F9204
:10101000CDB7DEB789838B017A0141E050E0BE0194
:101020006F5F7F4F84E00E945204A701B80184E4FF
:101030000E9452040F90DF91CF911F910F91FF906A
:10104000EF900895FC0191818081813A31F481E033
:10105000913091F0933089F411C0813271F49B305A
:1010600021F4828180930F0105C09A3031F482818E
:1010700080930E0181E00895089580E0089548E08E
:1010800050E082E00C940108CF93DF93DC016838D4
:1010900018F0E8E7E60F25C0E62FF0E067FF11C083
:1010A000E058F10981E090E001C0880FEA95EAF785
:1010B00014969C911497982B14969C931497E0E0A7
:1010C00010C0EC53FE4FE491EE2309F440C0E7FF5B
:1010D00008C014968C911497826014968C93149780
:1010E000EF7716968C9116978E1741F117968C9183
:1010F00017978E1719F118968C9118978E17F1F093
:1011000019968C9119978E17C9F01A968C911A9787
:101110008E17A1F01B968C911B978E1779F080E0AB
:1011200090E0ED01C80FD91F2E81211102C0EE837E
:1011300005C0019686309105A1F709C0BD016C5F1D
:101140007F4FCD010E943F0881E090E008C081E020
:1011500090E013969C938E93129780E090E0DF913D
:10116000CF910895683818F0E8E7E60F25C0E62F1C
:10117000F0E067FF12C0E058F10921E030E001C063
:10118000220FEA95EAF72095DC0114963C9114971A
:10119000322314963C93E0E00FC0EC53FE4FE491F1
:1011A000EE2329F1E7FF08C0DC0114962C91149777
:1011B0002D7F14962C93EF7720E030E0EE2351F052
:1011C000DC01A20FB31F16964C9116974E1302C066
:1011D00016961C922F5F3F4F2630310579F7BC01E0
:1011E0006C5F7F4F0E943F0881E090E0089580E0AF
:1011F00090E00895FC0116821782108611861286EF
:1012000013861482BC016C5F7F4F0C943F081092D0
:101210009C01109293011092920184E291E09093CC
:101220009101809390010895CF92DF92EF92FF9207
:101230000F931F93CF93DF936C017A01EB01E60EBE
:10124000F71E00E010E0CE15DF0561F06991D601D0
:10125000ED91FC910190F081E02DC6010995080FF8
:10126000191FF1CFC801DF91CF911F910F91FF900E
:10127000EF90DF90CF900895EE0FFF1F0590F4914F
:08128000E02D0994F894FFCF62
:1012880000009D01800000E1000000000000010155
:1012980000000000F5063C071F072F070B071C0777
:0E12A80000000000D10714094408B208FA083B
:00000001FF
