:100000000C94A2010C94CA010C94CA010C94CA016C
:100010000C94CA010C94CA010C94CA010C94CA0134
:100020000C94CA010C94CA010C94701A0C943C19DB
:100030000C94CA010C94CA010C94CA010C94CA0114
:100040000C94CA010C94CA010C94CA010C94CA0104
:100050000C94CA010C94CA010C94CA010C945C1053
:100060000C94CA010C94CA010C94CA010C94CA01E4
:100070000C94CA010C94CA010C94CA010C94CA01D4
:100080000C94CA010C94CA010C94CA010C94CA01C4
:100090000C942F0F0C94CA010C94CA010C94CA0141
:1000A0000C94CA010C94090A0C94CA01AA11AF114C
:1000B000B411BE11C811121212121212D211DC1197
:1000C000E611F011FD11121205123312361225122B
:1000D00029122F125712571257123A123E12421279
:1000E00048124C125712521205A84CCDB2D44EB938
:1000F0003836A9020C50B9918688083CA6AAAA2ACB
:10010000BE000000803F0664EC1B3C04BC163E3B76
:10011000E5B93CC93C37C29E5A3D660498083EEAA0
:1001200069AAAA3E000000803F00070605040100FE
:10013000080A0B0C0D090000000200090F00000363
:100140000401000C0000000000000000000000009E
:100150000000000004080201104080401020408090
:10016000408008020401804020100201108010200D
:1001700040400404040404030405020202020403D0
:100180000202020206060606060604040202020431
:10019000000000002300260029002C002F00000092
:1001A0000000250028002B002E0031000000000078
:1001B000240027002A002D003000080B0002020254
:1001C00001000904000001020200000524001001E2
:1001D0000524010101042402060524060001070587
:1001E000810310004009040100020A000000070515
:1001F00002024000000705830240000000C1808128
:10020000C112010002020000404F1B0892000101D0
:1002100002000112010002000000404F1B08920082
:100220000101020001537061726B46756E004C69EA
:100230006C795061642055534200040309040000A6
:100240000000000000002A2B280000000000000031
:1002500000000000000000000000000000002C9ED4
:10026000B4A0A1A2A434A6A7A5AE362D3738271E68
:100270001F20212223242526B333B62EB7B89F840E
:1002800085868788898A8B8C8D8E8F9091929394A6
:1002900095969798999A9B9C9D2F3130A3AD3504E4
:1002A00005060708090A0B0C0D0E0F101112131486
:1002B00015161718191A1B1C1DAFB1B0B50009048B
:1002C0000200010300000009210101000122650074
:1002D0000705840340000105010902A1010901A1EC
:1002E00000850105091901290315002501950375EC
:1002F0000181029501750581030501093009310964
:10030000381581257F750895038106C0C005010950
:1003100006A1018502050719E029E71500250175E9
:1003200001950881029501750881039506750815E8
:100330000025650507190029658100C0670E020FB9
:10034000B5135B1C11241FBECFEFDAE0DEBFCDBFBB
:1003500011E0A0E0B1E0E6E9F2E402C005900D9200
:10036000A237B107D9F723E0A2E7B1E001C01D929F
:10037000A533B207E1F713E0C4E4D3E004C0229749
:10038000FE010E948B1FCC33D107C9F70E94D31303
:100390000C9449210C94000084E690E09093C901EC
:1003A0008093C8011092CB011092CA011092CD0126
:1003B0001092CC0182E390E09093CF018093CE0124
:1003C00081E090E008951092C9011092C80184E67E
:1003D00090E09093CB018093CA011092CD011092CE
:1003E000CC0182E390E09093CF018093CE0181E035
:1003F00090E008951092C9011092C8011092CB01AB
:100400001092CA0184E690E09093CD018093CC01D4
:1004100082E390E09093CF018093CE0181E090E061
:1004200008952FEF3FEF3093CD012093CC0130930F
:10043000CB012093CA013093C9012093C8018330B6
:1004400091051CF028EC30E002C024E130E030934C
:10045000CF012093CE0163E070E00E94341F880F2B
:10046000991F88539E4F20E530E0FC0131832083A3
:1004700081E090E00895CF93DF93CDB7DEB7A097EA
:100480000FB6F894DEBF0FBECDBF20E2E5E1F1E08C
:10049000DE01119601900D922A95E1F760E270E07D
:1004A0000E94341F21E030E02C0F3D1F820F931F6C
:1004B000FC01808190E09093CD018093CC019093DA
:1004C000CB018093CA019093C9018093C8018CE04D
:1004D00090E09093CF018093CE01A0960FB6F89450
:1004E000DEBF0FBECDBFDF91CF91089582E791E0CF
:1004F0000C949A0A82E791E00C947B0A82E791E0DF
:100500000C94B30C80FF0DC01092CD011092CC0161
:100510001092CB011092CA011092C9011092C80129
:1005200013C023E030E040E050E060E070E0CB0139
:100530000E94081BFB01BB96EE0FFF1FEE58FE4FFB
:1005400080E990E09183808386E490E09093CF01EE
:100550008093CE0181E090E0089580FF0FC084E693
:1005600090E09093CD018093CC019093CB01809348
:10057000CA019093C9018093C80111C023E030E003
:1005800040E050E060E070E0CB010E94081BFB01FE
:10059000BB96EE0FFF1FEE58FE4F1182108284E6CD
:1005A00090E09093CF018093CE0181E090E0089598
:1005B000CF92DF92EF92FF92BC01882777FD809562
:1005C000982F0E946F1D2BED3FE049EC51E40E94F3
:1005D000D41C0E94F11E0E94F11E2BED3FE049EC5D
:1005E0005FE30E94681C0E94D11C20E030E04EEFC7
:1005F00052E40E94881E20E030E04EEF52E40E9458
:10060000691C6B017C0120E030E0A9010E947D1E85
:1006100020E030E040E05FE387FD05C0C701B601A0
:100620000E94691C04C0C701B6010E94681C0E9498
:100630003C1D7093CD016093CC018EE190E09093CE
:10064000CF018093CE0181E090E0FF90EF90DF90AA
:10065000CF900895CF92DF92EF92FF92BC0188274E
:1006600077FD8095982F0E946F1D2BED3FE049ECA0
:1006700051E40E94D41C2BED3FE049E450E40E9479
:10068000681C0E94D11C20E030E04EEF52E40E9432
:10069000881E20E030E04EEF52E40E94691C6B019E
:1006A0007C0120E030E0A9010E947D1E20E030E0C6
:1006B00040E05FE387FD05C0C701B6010E94691CE9
:1006C00004C0C701B6010E94681C0E943C1D7093C3
:1006D000CD016093CC017093CB016093CA017093FC
:1006E000C9016093C80182E390E09093CF018093A9
:1006F000CE0181E090E0FF90EF90DF90CF900895E1
:10070000CF92DF92EF92FF92CF93DF93EC01BC0187
:10071000882777FD8095982F0E946F1D2BED3FE075
:1007200049EC51E40E94D41C2BED3FE049E450E435
:100730000E94681C0E94D11C20E030E04EEF52E481
:100740000E94881E20E030E04EEF52E40E94691CB7
:100750006B017C0120E030E0A9010E947D1E20E0B9
:1007600030E040E05FE387FD05C0C701B6010E94AD
:10077000691C04C0C701B6010E94681C0E943C1D90
:100780007093C9016093C801CA33D1050CF482C0CB
:10079000BE016A537109882777FD8095982F0E94C2
:1007A0006F1D2BED3FE049EC51E40E94D41C2BED72
:1007B0003FE049E450E40E94681C0E94D11C20E004
:1007C00030E04EEF52E40E94881E20E030E04EEF11
:1007D00052E40E94691C6B017C0120E030E0A90119
:1007E0000E947D1E20E030E040E05FE387FD05C011
:1007F000C701B6010E94691C04C0C701B6010E946E
:10080000681C0E943C1D7093CB016093CA01CA36DC
:10081000D1050CF43FC0BE016A567109882777FDE7
:100820008095982F0E946F1D2BED3FE049EC51E41D
:100830000E94D41C2BED3FE049E450E40E94681C68
:100840000E94D11C20E030E04EEF52E40E94881E4E
:1008500020E030E04EEF52E40E94691C6B017C0105
:1008600020E030E0A9010E947D1E20E030E040E061
:100870005FE387FD05C0C701B6010E94691C04C083
:10088000C701B6010E94681C0E943C1D7093CD01F7
:100890006093CC0182E390E09093CF018093CE01EE
:1008A00081E090E0DF91CF91FF90EF90DF90CF90CB
:1008B0000895CF92DF92EF92FF92CF93DF93EC01F6
:1008C000BC01882777FD8095982F0E946F1D2BED26
:1008D0003FE049EC51E40E94D41C2BED3FE049EC91
:1008E0005FE30E94691C0E94D11C6B017C01CE0158
:1008F000D7FD0196BC0175956795882777FD809592
:10090000982F0E946F1D0E94EB1E9B01AC01C70136
:10091000B6010E94691C20E030E048E452E40E94E5
:10092000881E20E030E048EC52E40E94691C6B0114
:100930007C0120E030E0A9010E947D1E20E030E033
:1009400040E05FE387FD05C0C701B6010E94691C56
:1009500004C0C701B6010E94681C0E943C1D709330
:10096000CD016093CC018EE190E09093CF01809314
:10097000CE0181E090E0DF91CF91FF90EF90DF908A
:10098000CF900895CF92DF92EF92FF920F931F9333
:10099000CF93DF930091750110E040E850E060E0F4
:1009A00070E082E791E00E942F0A84E690E0B801AF
:1009B0000E94341F6B0144E650E0C0E0D0E07A01B1
:1009C000EC0CFD1CC017D107DCF4BE0182E791E0FE
:1009D0000E941D0864E670E080E090E00E94D5105F
:1009E00040E050E0BE0182E791E00E941D0862E312
:1009F00070E080E090E00E94D5102196A701DFCF43
:100A0000C3E0D0E040E050E060E070E082E791E0D9
:100A10000E942F0A64E670E080E090E00E94D5100A
:100A200040E850E060E070E082E791E00E942F0A29
:100A300064E670E080E090E00E94D510219711F705
:100A4000DF91CF911F910F91FF90EF90DF90CF90AA
:100A5000089560E070E082E791E00E941E0D4DEC89
:100A60005CEC6CE47EE382E791E00E94730A0E94F2
:100A7000C2046CEC71E082E791E00E94F70A63EE39
:100A800071E082E791E00E94F70A6AEF71E082E785
:100A900091E00E94F70A62E872E082E791E00E942A
:100AA000F70A6AE273E082E791E00E94F70A69E5DB
:100AB00074E082E791E00E94F70A6BE372E082E75C
:100AC00091E00E94F70A61E172E082E791E00E9402
:100AD000F70A68ED72E082E791E00E94F70A60E8A9
:100AE00073E082E791E00E94F70A6DEA72E082E724
:100AF00091E00E94F70A6EE772E082E791E00E94BF
:100B00005E0E6AE772E082E791E00E94610E66E79E
:100B100072E082E791E00E94640E40E855E260E0F6
:100B200070E08BEC92E00C94AF13CF92DF92EF92D7
:100B3000FF920F931F93CF93DF93CDB7DEB7279725
:100B40000FB6F894DEBF0FBECDBF8BEC92E00E94D3
:100B50001A13181619060CF0E8C041E050E0BE0167
:100B6000695F7F4F8BEC92E00E941D178F818C365E
:100B700071F48BEC92E00E941A17162F462F50E06A
:100B800060E070E082E791E00E942F0A14C090EDCF
:100B9000980F9330C0F48BEC92E00E941A17162F36
:100BA000462F50E08F81682F772767FD709582E789
:100BB00091E00E941D084AE050E0612F8BEC92E02A
:100BC0000E940915B2C08D32A9F48BEC92E00E940C
:100BD0001A176B017C018BEC92E00E941A17462FCA
:100BE00050E0662777276C197D0982E791E00E9423
:100BF0001D089BC08B3751F58BEC92E00E941A17B1
:100C00007A8369838BEC92E00E941A177C836B8352
:100C10008BEC92E00E941A177E836D838E010F5F2A
:100C20001F4FE12CF12CF801419151918F0157FD9B
:100C300005C0B70182E791E00E941D08FFEFEF1A9F
:100C4000FF0A83E0E816F10471F76FC0803729F4DA
:100C500082E791E00E949A0A06C0803539F482E763
:100C600091E00E947B0AAB01BC0159C0843729F492
:100C700082E791E00E94D80AF6CF843529F482E712
:100C800091E00E94B90AEFCF823751F48BEC92E0E9
:100C90000E941A1770E082E791E00E94860C0FC054
:100CA000873669F0833729F482E791E00E94450B8B
:100CB0003CC0833681F482E791E00E94B30C82E766
:100CC00091E00E94530A4AE050E0BC018BEC92E0B4
:100CD0000E94E4142AC08936C1F48BEC92E00E9491
:100CE0001A172091900130E0CB01B9010E94341F06
:100CF000BC0182E791E00E94490E4AE050E0BC014D
:100D00008BEC92E00E94201510C08E3671F4409159
:100D1000D0015091D1016091D2017091D30122E0B4
:100D200030E08BEC92E00E94211627960FB6F894E3
:100D3000DEBF0FBECDBFDF91CF911F910F91FF900E
:100D4000EF90DF90CF900895FC018AEF90E09383BD
:100D5000828388EE93E095838483108E178A1286AF
:100D600016861586108A1786128A118A148A138AA3
:100D7000168A158A8681978190A3878F92A381A373
:100D800013A214A215A216A249E150E060E070E09F
:100D900047A350A761A772A708950C94A406EF92E9
:100DA000FF921F93CF93DF931F92CDB7DEB77C01E5
:100DB000162FFC01258D368D232B49F460E0812F01
:100DC00079830E945812F7011083798171830F9003
:100DD000DF91CF911F91FF90EF900895FC01672B59
:100DE00071F081E090E09783868311861086858D6F
:100DF000968D892B51F462E080810C9458121782F1
:100E0000168281E090E0918780870895FC017487C5
:100E100063870895FC01768765870895FC01728BCE
:100E2000618B0895CF92DF92EF92FF920F931F9301
:100E3000CF93DF93EC01062F10E089A19AA1081748
:100E4000190731F00E94A6106BA37CA38DA39EA36B
:100E50000E94A610CBA0DCA0EDA0FEA06C197D091D
:100E60008E099F09CFA0D8A4E9A4FAA4C616D70674
:100E7000E806F90638F48F8D98A10817190711F0C4
:100E800018A30F8F1AA309A38F8DDF91CF911F9104
:100E90000F91FF90EF90DF90CF9008958F929F92E7
:100EA000AF92BF92CF92DF92EF92FF920F931F9378
:100EB000CF93DF93EC01ED8DFE8D309711F0099506
:100EC00003C088810E94C712682FCE010E941207BA
:100ED000E82EF12C0E94A6102F89388D211531059E
:100EE00079F428853985E216F30609F096C021E0E9
:100EF00030E0388F2F8B698F7A8F8B8F9C8F8DC0CE
:100F000021303105C9F52E813F81E216F30619F42F
:100F100082E090E02EC028853985E216F30609F0BC
:100F20007CC04C815D818A01222717FD2095322FDC
:100F3000C98CDA8CEB8CFC8C0C0D1D1D2E1D3F1DFD
:100F4000061717072807390708F067C081E08A8766
:100F5000EF85F889309709F00995E989FA89309782
:100F600009F00995ED89FE89309709F0099586E029
:100F700090E0988F8F8B51C022303105F9F44A816F
:100F80005B814A01AA2497FCA094BA2C098D1A8D82
:100F90002B8D3C8D800E911EA21EB31E86169706C9
:100FA000A806B90618F4EB85FC851EC088859985CE
:100FB000E816F90691F583E090E0DBCF23303105A8
:100FC00041F48E819F81E816F90639F5ED85FE859D
:100FD0000BC02630310509F58E819F81E816F90690
:100FE00049F41A86EB89FC89309709F00995188E27
:100FF0001F8A13C081E08A87ED89FE89309769F0E6
:10100000DF91CF911F910F91FF90EF90DF90CF90E4
:10101000BF90AF909F908F900994DF91CF911F91D7
:101020000F91FF90EF90DF90CF90BF90AF909F9087
:101030008F90089583960C94CD064F925F926F9295
:101040007F928F929F92AF92BF92CF92DF92EF9258
:10105000FF920F931F93CF93DF938C01252FFC01F9
:1010600043806F3FFFEF7F0721F4512CC12CD12C1F
:101070000EC0CB0177FF03C0919581959109642D36
:1010800070E00E94341F6C0144244394512CF801F9
:101090008281C42FD22F882369F0CF3FD10519F068
:1010A00014F0CFEFD0E0C130FFEFDF076CF4C1E008
:1010B000DFEF0AC0CF3FD10519F014F0CFEFD0E039
:1010C000D7FF02C0C0E0D0E0BE01882777FD809541
:1010D000982F0E946F1D4B015C0178018CE6E80E91
:1010E000F11CF7012081318142815381C501B40196
:1010F0000E94881E20E030E04FE753E40E947D1EEE
:10110000181684F48FEF90E0BE010E94341F8827E8
:1011100077FD8095982F0E946F1DF7016083718382
:1011200082839383612C712C641475047CF5C00E4A
:10113000D11E209769F460E070E0F60184810E947E
:101140008411F80182818823E1F060E070E015C02D
:10115000F7012081318142815381C501B4011C1600
:101160001D063CF40E94881E0E943C1DF6018481ED
:1011700006C00E94881E0E943C1DF60184850E94C4
:101180008411FFEF6F1A7F0A6301CECF81E090E0F8
:10119000DF91CF911F910F91FF90EF90DF90CF9053
:1011A000BF90AF909F908F907F906F905F904F9087
:1011B00008954F925F926F927F928F929F92AF921B
:1011C000BF92CF92DF92EF92FF920F931F93CF9334
:1011D000DF93EC0183960E944E075E018AE8A80E19
:1011E000B11CD5018C91882309F4EDC07E01BCE7C8
:1011F000EB0EF11CF7018081918101969183808330
:10120000608171818E010C591F4FD801CD90DC9007
:10121000F6018680978080E090E00E946D1D2B0192
:101220003C01B40180E090E00E946D1DFE01EC588D
:10123000FF4F20813181428153810E94881E9B0192
:10124000AC01C301B2010E947D1ED60118160CF03C
:101250004EC018968D919C911997892B19F4F50120
:1012600010822FC0D60118968D919C911997F80184
:1012700091838083FE01E659FF4F20813181232B2A
:1012800019F4B39691838083C12CD12C8B8190E08B
:10129000C816D906B4F4D801ED91FC91C601880FA7
:1012A000991FE80FF91F8081918197FD06C0408149
:1012B0005181B601CE010E941D08BFEFCB1ADB0A97
:1012C000E5CF8E0105571F4FF801808191810E9463
:1012D0005520FE01E357FF4F80819181D8018D9306
:1012E0009C9311821082F701118210826CC01896B3
:1012F0008D919C911997892B09F065C0FE01E659E3
:10130000FF4F0190F081E02D309709F45CC07E0121
:101310008FE8E80EF11CD7018D919C910995892BDE
:1013200009F474C0F70180819181019691838083D3
:10133000D801ED90FC908AE090E00E94E613F7015E
:1013400091878087D801ED91FC9180859185DE01A0
:10135000A357BF4F8D939C9320853185CE018A5A28
:101360009F4FDC018D919C91D9018D939C93208599
:101370003185CE01885A9F4FDC018D919C91D90116
:1013800013969C938E93129720853185CE01865AB1
:101390009F4FDC018D919C91D90115969C938E9362
:1013A000149720853185CE01845A9F4FDC018D91A1
:1013B0009C91D90117969C938E9316970084F18582
:1013C000E02D11861086FE01E058FF4F0190F0815C
:1013D000E02DDE01A857BF4F8D919C9191838083B2
:1013E000CE57DF4FE881F9811082DF91CF911F91B5
:1013F0000F91FF90EF90DF90CF90BF90AF909F90B4
:101400008F907F906F905F904F900895F5011082BC
:10141000DACF1F920F920FB60F9211242F933F93A2
:101420004F935F936F937F938F939F93AF93BF93EC
:10143000EF93FF9382E791E00E94D908FF91EF912B
:10144000BF91AF919F918F917F916F915F914F91DC
:101450003F912F910F900FBE0F901F901895CF9333
:10146000DF93EC01CB016D896623C1F09A014F3FF8
:10147000510519F014F02FEF30E037FF02C020E0E3
:1014800030E070E00E94341F8C0F9D1FB901FC01F9
:1014900086890E94841181E090E002C08FEF9FEF67
:1014A000DF91CF910895FC01EA59FF4F40815181AE
:1014B0004115510599F032960190F081E02D20E020
:1014C00030E0E417F50741F0309751F02F5F3F4FC0
:1014D0000280F381E02DF5CFC90108958FEF01C09F
:1014E0008EEF9FEF089580599F4FFC0140835183F9
:1014F000628373830895CF93DF93EC01C459DF4F68
:10150000FC01E059FF4F20E030E040E85FE36081FC
:101510007181828193810E94691C288139814A816D
:101520005B810E94881E688379838A839B83DF9115
:10153000CF910895CF93DF93EC01C459DF4FFC01A5
:10154000E059FF4F208131814281538160E070E09A
:1015500080E89FE30E94681C288139814A815B8171
:101560000E94881E688379838A839B83DF91CF9151
:101570000895CF93DF93EC01CC58DF4FFC01E8587E
:10158000FF4F20E030E040E85FE3608171818281BD
:1015900093810E94691C288139814A815B810E9464
:1015A000881E688379838A839B83DF91CF91089516
:1015B000CF93DF93EC01CC58DF4FFC01E858FF4F8D
:1015C000208131814281538160E070E080E89FE3B7
:1015D0000E94681C288139814A815B810E94881E93
:1015E000688379838A839B83DF91CF910895CF921B
:1015F000DF92EF92FF920F931F93CF93DF938C01B3
:101600006B017C0188E6E80EF11CF701C081D181F5
:10161000209789F4F89484E090E00E94E613F701A3
:101620009183808378940190F081E02D3097C9F404
:101630008FEF9FEF21C08A819B81892B21F00A8047
:10164000DB81C02DF8CFF89484E090E00E94E6138F
:101650009B838A8378948A819B81892B49F3EA81D1
:10166000FB81D182C08213821282D801AA59BF4F56
:10167000ED93FC9381E090E0DF91CF911F910F916A
:10168000FF90EF90DF90CF900895EF92FF920F932D
:101690001F93CF93DF93EC01FC01E657FF4F1082BD
:1016A0007E9740E050E060E87FE3408351836283AF
:1016B0007383389640835183628373837B96118250
:1016C000108240E050E06FEF7FEF0E941D08FE01A6
:1016D000E659FF4F1182108270978FEF9FEF918331
:1016E000808332979183808332979183808336966B
:1016F000118210827E018BE8E80EF11CF7018081D7
:101700009181FC0100851185009729F00E945520E8
:10171000C801F801F7CFC357DF4F19821882F701CC
:1017200011821082DF91CF911F910F91FF90EF9066
:1017300008954F925F926F927F928F929F92AF9295
:10174000BF92CF92DF92EF92FF920F931F93CF93AE
:10175000DF93EC017B010E94450B4E018AE6880E67
:10176000911CD401ED92FC928E0101571F4FF8019C
:1017700080819181F7010995009709F4B6C0D801DD
:101780008D919C911197019611969C938E93F8944C
:101790008AE090E00E94E613FE01EE59FF4F91832C
:1017A000808378943E01B2E66B0E711CD301ED91FB
:1017B000FC91309719F48FEF9FEF97C0DE01A5578A
:1017C000BF4FED93FC935E01B6E5AB0EB11CD501A6
:1017D0008D919C91918380836E01B8E5CB0ED11CD5
:1017E000D6018D919C91938382837E01BAE5EB0EA5
:1017F000F11CD7018D919C91958384832E01BCE5CA
:101800004B0E511CD2018D919C9197838683F801D8
:1018100080819181D401ED91FC910995009709F4A3
:1018200064C0F80180819181019691838083F8944E
:10183000D3010D911C918AE090E00E94E613F8011B
:10184000918780877894FE01EE59FF4F2081318186
:10185000D9011896ED91FC911997309709F4ABCF07
:10186000CE0183579F4FDC01ED93FC93D5018D9101
:101870009C9191838083D6018D919C9193838283E7
:10188000D7018D919C9195838483D2018D919C91F8
:1018900097838683118610867E01B4E6EB0EF11CD9
:1018A000F7013183208300E010E08B8190E008177E
:1018B0001907ACF4D701ED91FC91C801880F991F6D
:1018C000E80FF91F8081918197FD06C04081518109
:1018D000B801CE010E941D080F5F1F4FE6CFC6570B
:1018E000DF4F81E0888381E090E0DF91CF911F910D
:1018F0000F91FF90EF90DF90CF90BF90AF909F90AF
:101900008F907F906F905F904F900895FC01EA59FF
:10191000FF4F20813181232B01F1DC01A859BF4FFA
:101920002D913C913183208320E030E0261737074A
:1019300069F0A081B18112964D915C91139751830A
:101940004083452B69F02F5F3F4FF0CF0190F0812E
:10195000E02D608171810C94990B8FEF9FEF0895BA
:101960008EEF9FEF0895FC01EA59FF4FA081B181EE
:101970001097E1F012962D913C911397232B31F49F
:10198000DC01A859BF4F2D913C9104C012962D91B6
:101990003C911397318320830190F081E02D608189
:1019A00071810E94990B81E090E008958FEF9FEF85
:1019B00008951F93CF93DF93EC01888199811816C6
:1019C0001906B4F561307105C1F068F06230710537
:1019D00079F58FE0FE01EC5AFF4F808381E131966B
:1019E000808311E015C089E1FE01EC5AFF4F80832E
:1019F0008BE13196808310E00BC082E0FE01EC5A4F
:101A0000FF4F808383E03196808310E061E001C066
:101A100060E0FE01EE5AFF4F80810E949112CD5A84
:101A2000DF4F612F88810E94911280E090E002C018
:101A30008FEF9FEFDF91CF911F9108954F925F92AB
:101A40006F927F928F929F92AF92BF92CF92DF92CE
:101A5000EF92FF920F931F93CF93DF93EC012C0132
:101A60008EE7480E511C81EC90E0D2018D939C933F
:101A70005E01B0E8AB0EB11C8EEB90E0F5019183F6
:101A800080837E01F2E8EF0EF11C89E390E0D7013C
:101A90008D939C934E01B4E88B0E911C82E790E0ED
:101AA000F401918380836E01F8E8CF0ED11C80E1B0
:101AB00090E0D6018D939C938E01025B1F4F83E0D3
:101AC0008B836130710591F585E08C838AE08D838D
:101AD0008BE08E837983688381E08D8B8DE08E8BA4
:101AE00082E08E8F89E18F8F8BE188A388E0FE01F1
:101AF000EE5AFF4F80838CE03E01B3E56B0E711C04
:101B0000F301808361E088E00E94581261E0D30114
:101B10008C910E94581260E070E0CE010E94D90CB6
:101B200084E090E0F8019183808316C08C8389E083
:101B30008D838AE08E831982188281E08D8B8DE0FF
:101B40008E8B82E08E8F84E18F8F85E188A382E087
:101B500090E0D8018D939C931A821C8AF8016081D1
:101B600071818E010D5D1F4FC8010E94CF0661E09B
:101B700070E0C8010E94EE0600E010E08B8190E06A
:101B800008171907A4F43E01600E711E61E0D3012D
:101B900014968C910E9458128A81882329F061E062
:101BA000F30184850E9458120F5F1F4FE7CF00E0BA
:101BB00010E08E8D90E00817190754F4FE01E00F35
:101BC000F11F60E0878D0E9458120F5F1F4FF1CF09
:101BD00000E010E08D8990E00817190754F4FE0129
:101BE000E00FF11F61E086890E9458120F5F1F4FBE
:101BF000F1CFD401ED91FC9184E08083FE01E458A3
:101C0000FF4F11821082D501ED91FC91D6018D918B
:101C10009C9191838083D701ED91FC911082D20138
:101C2000ED91FC9185E08083FE01E459FF4F40E097
:101C300050E060E87FE3408351836283738334968E
:101C40008DEC9CECACECBDE380839183A283B383E9
:101C50003496408351836283738334968083918367
:101C6000A283B383C25ADF4F188219821A821B8261
:101C7000DF91CF911F910F91FF90EF90DF90CF9068
:101C8000BF90AF909F908F907F906F905F904F909C
:101C90000895CF93DF93EC01CB0177FF03C09195BB
:101CA000819591096E8D70E00E94341F8C0F9D1FED
:101CB000FC01878DDF91CF910C94531183960C9486
:101CC000060783960C940A0783960C940E0782E706
:101CD00091E00C941A088091320290E02091330236
:101CE000821B9109089520913302809132022817B6
:101CF00050F4E22FF0E0EC5CFD4F808190E02F5F2C
:101D00002093330208958FEF9FEF0895E0913302FF
:101D100080913202E81730F4F0E0EC5CFD4F8081F6
:101D200090E008958FEF9FEF08950895CF92DF928E
:101D3000EF92FF920F931F93CF93DF937C01CB0120
:101D40008A0120910F02222389F0EB016B01C40E5E
:101D5000D51ECC15DD0569F06991D701ED91FC9197
:101D60000190F081E02DC7010995F3CF642F0E9407
:101D7000060FC801DF91CF911F910F91FF90EF9057
:101D8000DF90CF900895CF93DF931F92CDB7DEB74A
:101D9000698320910F022223D1F02091100220327A
:101DA00040F021E030E0FC013383228380E090E0CA
:101DB00015C080911102E82FF0E0EE5EFD4F998191
:101DC00090838F5F809311028093100205C061E0C1
:101DD000CE0101960E94060F81E090E00F90DF9106
:101DE000CF910895FC011382128248EE53E060E027
:101DF00070E0448355836683778389E391E0918320
:101E00008083089583E092E00C94F20E613298F49E
:101E10002091C102243089F460937602FC0188E7A6
:101E200092E0DC012A2F281B261718F421912D930C
:101E3000F9CF80E0089581E0089582E0089585ED6E
:101E40008093BC008091BC0084FDFCCF1092C10245
:101E5000089585EC8093BC001092C10208951F92F2
:101E60000F920FB60F9211242F933F934F935F93CE
:101E70006F937F938F939F93AF93BF93EF93FF9352
:101E80008091B900887F803609F49CC068F588325B
:101E900009F45BC090F4803109F454C038F488230D
:101EA00009F4F5C0883009F44DC0F5C0883109F453
:101EB0004CC0803209F45DC0EEC0803409F468C0C3
:101EC00048F4803309F455C0883309F0E4C08093A6
:101ED0005402A8C0803509F44FC0883509F45DC0AC
:101EE000883409F0D8C0D5C0883909F4C6C0A8F430
:101EF000883709F467C038F4883609F463C080373E
:101F000009F460C0C8C0883809F4B7C0803909F442
:101F10005FC0803809F0BFC05BC0803B09F485C05A
:101F200038F4803A09F466C0883A09F47EC0B3C038
:101F3000803C09F4A6C0883C09F4A3C0883B09F49E
:101F400089C0A9C08091C00210C09091990280916F
:101F50009802981770F5E091990281E08E0F8093B6
:101F60009902F0E0E656FD4F80818093BB0085EC3E
:101F700085C0809354028DC0E091990281E08E0F5C
:101F8000809399028091BB00F0E0E656FD4F80837C
:101F900090919902809198026DC0E091990281E040
:101FA0008E0F809399028091BB00F0E0E656FD4FC2
:101FB00080838091BF0281116CC081E08093BE025A
:101FC00084EA60C083E08093C10210925502CFCFB3
:101FD00080915502803208F050C0E091550281E0B6
:101FE0008E0F809355028091BB00F0E0EA5AFD4FBE
:101FF0008083BDCF80915502803230F4E09155024C
:10200000F0E0EA5AFD4F10820E941F0F60915502C6
:1020100070E0E091BA02F091BB0286E592E009958A
:10202000109255020E94290F36C084E08093C102AD
:102030001092770210927602E091BC02F091BD02FC
:10204000099580917602811105C081E08093760226
:1020500010927802E091770281E08E0F80937702F0
:10206000F0E0E858FD4F80818093BB0090917702AB
:1020700080917602981708F47ACF85E88093BC00A7
:102080000AC085EC8093BC001092C10204C010927B
:1020900054020E941F0FFF91EF91BF91AF919F914A
:1020A0008F917F916F915F914F913F912F910F9001
:1020B0000FBE0F901F9018951F920F920FB60F92A0
:1020C00011242F933F938F939F93AF93BF9380914E
:1020D000C3029091C402A091C502B091C602309192
:1020E000C20226E0230F2D3720F40296A11DB11D58
:1020F00005C029E8230F0396A11DB11D2093C2023C
:102100008093C3029093C402A093C502B093C60209
:102110008091C7029091C802A091C902B091CA02F1
:102120000196A11DB11D8093C7029093C802A09390
:10213000C902B093CA02BF91AF919F918F913F9115
:102140002F910F900FBE0F901F9018952FB7F894F6
:102150006091C3027091C4028091C5029091C60241
:102160002FBF08953FB7F8948091C7029091C8029D
:10217000A091C902B091CA0226B5A89B05C02F3F05
:1021800019F00196A11DB11D3FBF6627782F892F39
:102190009A2F620F711D811D911D43E0660F771FFD
:1021A000881F991F4A95D1F70895CF92DF92EF9239
:1021B000FF92CF93DF936B017C010E94B210EB0181
:1021C000C114D104E104F10489F00E94241B0E948F
:1021D000B2106C1B7D0B683E734090F381E0C81A0F
:1021E000D108E108F108C851DC4FEACFDF91CF9167
:1021F000FF90EF90DF90CF900895789484B582603F
:1022000084BD84B5816084BD85B5826085BD85B59A
:10221000816085BDEEE6F0E0808181608083E1E849
:10222000F0E0108280818260808380818160808381
:10223000E0E8F0E0808181608083E1E9F0E0808186
:1022400082608083808181608083E0E9F0E080812A
:1022500081608083E1ECF0E0808184608083808114
:1022600082608083808181608083E3ECF0E0808104
:1022700081608083E0ECF0E0808182608083E2EC2A
:10228000F0E0808181608083EAE7F0E08081846013
:10229000808380818260808380818160808380816F
:1022A000806880830895823108F08251E82FF0E041
:1022B000E65DFE4FE49180917B00E3FB222720F94D
:1022C00030E095E0220F331F9A95E1F78F7D822B46
:1022D00080937B00E77080910A0120E4829FC00117
:1022E0001124E82BE0937C0080917A008064809335
:1022F0007A0080917A0086FDFCCF80917800209151
:10230000790090E0922B08951F93CF93DF93182FBD
:10231000EB0161E00E945812209711F460E004C0C4
:10232000CF3FD10539F461E0812FDF91CF911F912B
:102330000C949112E12FF0E0EA5CFE4F449150E0E2
:10234000FA013197EF30F10508F06CC0EA5AFF4FFF
:102350000C94891F84B5806884BDC7BD68C084B5EE
:10236000806284BDC8BD63C0809180008068809316
:102370008000D0938900C093880059C0809180006C
:10238000806280938000D0938B00C0938A004FC0FE
:1023900080918000886080938000D0938D00C093EE
:1023A0008C0045C080919000806880939000D0930D
:1023B0009900C09398003BC0809190008062809308
:1023C0009000D0939B00C0939A0031C08091900000
:1023D000886080939000D0939D00C0939C0027C09C
:1023E0008091C00080688093C0008091C0008F7B86
:1023F0008093C000C093CF001AC08091C00080625B
:102400008093C000C093D00012C08091C200886049
:102410008093C2008091C2008B7F8093C200C093E2
:10242000D20005C0C038D1050CF07DCF77CFDF9149
:10243000CF911F91089590E0FC013197EF30F105A5
:10244000B0F5EB59FF4F0C94891F809180008F7776
:1024500003C0809180008F7D8093800008958091DB
:102460008000877FF9CF84B58F7702C084B58F7DD8
:1024700084BD0895809190008F7707C0809190006F
:102480008F7D03C080919000877F80939000089596
:102490008091C0008F7703C08091C0008F7D8093B2
:1024A000C00008958091C200877F8093C200089584
:1024B000CF93DF9390E0FC01EC5AFE4F2491FC0196
:1024C000EE58FE4F8491882349F190E0880F991FC0
:1024D000FC01E455FE4FA591B49182569E4FFC013C
:1024E000C591D4919FB7611108C0F8948C91209543
:1024F00082238C93888182230AC0623051F4F8943D
:102500008C91322F309583238C938881822B888302
:1025100004C0F8948C91822B8C939FBFDF91CF9154
:1025200008950F931F93CF93DF931F92CDB7DEB71C
:10253000282F30E0F901EA5CFE4F8491F901EC5A52
:10254000FE4F1491F901EE58FE4F04910023C9F09B
:10255000882321F069830E941B126981E02FF0E03B
:10256000EE0FFF1FE256FE4FA591B4919FB7F8946E
:102570008C91611103C01095812301C0812B8C9334
:102580009FBF0F90DF91CF911F910F910895CF932F
:10259000DF93282F30E0F901EA5CFE4F8491F901C6
:1025A000EC5AFE4FD491F901EE58FE4FC491CC2362
:1025B00091F081110E941B12EC2FF0E0EE0FFF1F33
:1025C000E057FE4FA591B4912C912D2381E090E02E
:1025D00021F480E002C080E090E0DF91CF91089587
:1025E000CF93DF931F92CDB7DEB76983DC01ED9106
:1025F000FC910280F381E02D41E050E0BE016F5F6D
:102600007F4F09950F90DF91CF910895CF93DF937E
:10261000EC018C859D8597FF05C082E00E94111812
:102620009D878C878C859D85DF91CF91089583E070
:102630000C94661AFC018485958597FD06C082E09E
:102640000E94B91790E00196089582E00E94B917A0
:1026500090E00895FC018485958597FD05C02FEFD6
:102660003FEF35872487089582E00C941118CF93AB
:10267000DF93EC0180911201882331F083E00E9406
:1026800042181816190634F081E090E09B838A8383
:1026900080E090E0DF91CF910895FC0120812E5FD2
:1026A000208342E450E06AEB71E080E80C94DD188E
:1026B000FC0181819081913A59F4813209F04BC03B
:1026C00047E050E06BE071E080E00E94DD1845C01B
:1026D000913209F040C0803239F467E070E08BE05D
:1026E00091E00E940E1939C0823209F034C0828113
:1026F0008093120180910B0190910C01A0910D012A
:10270000B0910E01803B9440A105B10531F5809157
:10271000120180FD12C087E797E79093010880932C
:1027200000082BE088E190E00FB6F894A89580931C
:1027300060000FBE2093600010C088E10FB6F894CF
:1027400080936000109260000FBEA895109201085F
:102750001092000802C080E0089581E008952FEFF4
:102760003FEFFC013587248708951092CE02109226
:10277000CD0288EE93E0A0E0B0E08093CF0290938A
:10278000D002A093D102B093D20289E491E0909359
:10279000CC028093CB028FEF9FEF9093D80280936F
:1027A000D702089508950E94FD100E94D2138BE174
:1027B00093E00E94C61A0E942905C0E0D0E00E9462
:1027C00095052097E1F30E940000F9CF0C94BD1FFE
:1027D000CF92DF92EF92FF920F931F93CF93DF93ED
:1027E0006C017A01EB01E60EF71E00E010E0CE1559
:1027F000DF0561F06991D601ED91FC910190F081C6
:10280000E02DC6010995080F191FF1CFC801DF910E
:10281000CF911F910F91FF90EF90DF90CF9008958F
:102820006115710581F0DB010D900020E9F7AD0124
:1028300041505109461B570BDC01ED91FC91028080
:10284000F381E02D099480E090E00895DC01ED91A2
:10285000FC910190F081E02D09940F931F93CF9389
:10286000DF93EC016DE00E9426148C016AE0CE013A
:102870000E942614800F911FDF91CF911F910F911D
:1028800008958F929F92AF92BF92CF92DF92EF9274
:10289000FF920F931F93CF93DF93CDB7DEB7A1972E
:1028A0000FB6F894DEBF0FBECDBF7C01C42EE52F5E
:1028B000CB01D22E19A221E02D1510F02AE0D22E44
:1028C0008E010F5D1F4F8D2C912CA12CB12C6C2DE6
:1028D0007E2FA50194010E94481F8C2DD29E801945
:1028E0001124015011098A3014F4805D01C0895C03
:1028F000F8018083211531054105510521F0C22ED3
:10290000E32FCA01E4CFB801C7010E941014A196B9
:102910000FB6F894DEBF0FBECDBFDF91CF911F91F0
:102920000F91FF90EF90DF90CF90BF90AF909F906E
:102930008F900895CF92DF92EF92FF920F931F93A3
:10294000CF93DF93EC016A017B012115310579F406
:10295000E881F9810190F081E02D642FDF91CF9122
:102960001F910F91FF90EF90DF90CF9009942A3044
:102970003105E9F477FF1AC06DE20E9426148C013C
:1029800044275527BA014C195D096E097F092AE0D1
:10299000CE010E944114800F911FDF91CF911F91B2
:1029A0000F91FF90EF90DF90CF9008952AE0B7014C
:1029B000A601CE01DF91CF911F910F91FF90EF9073
:1029C000DF90CF900C9441140F931F93CF93DF931C
:1029D000EC019A01AB01662757FD6095762F0E94A6
:1029E0009A148C01CE010E942D14800F911FDF914B
:1029F000CF911F910F9108952115310541F4DC010C
:102A0000ED91FC910190F081E02D642F09940C94DC
:102A100041140F931F93CF93DF93EC019A01462F3C
:102A200050E060E070E00E94FC148C01CE010E9436
:102A30002D14800F911FDF91CF911F910F91089559
:102A40000F931F93CF93DF93EC019A01AB0160E0EA
:102A500070E00E94FC148C01CE010E942D14800FA6
:102A6000911FDF91CF911F910F9108954F925F9227
:102A70006F927F928F929F92AF92BF92CF92DF928E
:102A8000EF92FF920F931F93CF93DF93EC016A01B4
:102A90007B01B22E9A01AB01C701B6010E94111F42
:102AA000882319F065E571E027C026013701E89415
:102AB00077F82FEF3FEF4FE75FE7C301B2010E94C6
:102AC000111F81110DC02FEF3FEF4FE75FE7C301EB
:102AD000B2010E94CD1C18161CF469E571E00CC00F
:102AE0002FEF3FEF4FE75FE4C701B6010E947D1E65
:102AF0001816ACF46DE571E0CE01DF91CF911F9116
:102B00000F91FF90EF90DF90CF90BF90AF909F908C
:102B10008F907F906F905F904F900C9410142FEFD8
:102B20003FEF4FE75FECC701B6010E94CD1C87FD68
:102B3000E1CF20E030E0A901C701B6010E94CD1C21
:102B400087FF0AC06DE2CE010E9426148C01F7FABD
:102B5000F094F7F8F09402C000E010E0A12C60E0DF
:102B600070E080E09FE3AB1441F020E030E040E211
:102B700051E40E94D41CA394F6CF9B01AC01C70181
:102B8000B6010E94691C6B017C010E94411D2B0152
:102B90003C010E946D1D9B01AC01C701B6010E9462
:102BA000681C6B017C012AE0B301A201CE010E94E6
:102BB0004114080F191FBB2039F061E671E0CE0106
:102BC0000E941014080F191F7B2C772041F120E080
:102BD00030E040E251E4C701B6010E94881E6B015B
:102BE0007C010E943C1D4B01AA2497FCA094BA2CA6
:102BF0002AE030E0B501A401CE010E949A14080F2A
:102C0000191FC501B4010E946F1D9B01AC01C701D2
:102C1000B6010E94681C6B017C017A94D6CFC80172
:102C2000DF91CF911F910F91FF90EF90DF90CF90A8
:102C3000BF90AF909F908F907F906F905F904F90DC
:102C400008950F931F93CF93DF93EC010E943615E5
:102C50008C01CE010E942D14800F911FDF91CF9126
:102C60001F910F9108950F931F93CF93DF93EC0162
:102C70000E94A610688779878A879B87E881F981F7
:102C80000680F781E02DCE01099597FF15C00E94BF
:102C9000A610088519852A853B85601B710B820B60
:102CA000930B0C811D812E813F8160177107820774
:102CB000930720F38FEF9FEFDF91CF911F910F913B
:102CC00008950F931F93CF93DF93EC010E94A610FA
:102CD000688779878A879B87E881F9810084F185F5
:102CE000E02DCE01099597FF15C00E94A61008851A
:102CF00019852A853B85601B710B820B930B0C8118
:102D00001D812E813F81601771078207930720F391
:102D10008FEF9FEFDF91CF911F910F910895CF9388
:102D2000DF93EC01CE010E94611697FD11C08D3238
:102D3000910571F09C01205331092A30310540F092
:102D4000E881F9810680F781E02DCE010995EACF6F
:102D5000DF91CF910895CF92DF92FF920F931F934F
:102D6000CF93DF9300D000D0CDB7DEB76C01062F34
:102D70000E948F16FC0197FD4BC020E030E0A901B6
:102D8000F12C112707FD1095E017F107E9F0ED325E
:102D9000F105C1F0CF01C0970A97B0F4AAE0B0E006
:102DA0000E948F1F9B01AC01CF01AA2797FDA09520
:102DB000BA2F280F391F4A1F5B1F205331094109C1
:102DC000510902C0FF24F394D601ED91FC910680D5
:102DD000F781E02DC60129833A834B835C830995F3
:102DE000C6010E946116FC01C09729813A814B817E
:102DF0005C810A9748F2E017F10731F2FF2061F099
:102E000066277727CB01621B730B840B950B06C0DB
:102E100060E070E0CB0102C0CA01B9010F900F90D1
:102E20000F900F90DF91CF911F910F91FF90DF9046
:102E3000CF90089561E00C94AB16CF92DF92EF92A1
:102E4000FF920F931F93CF93DF937C016A01EB01F5
:102E500000E010E00C151D0549F0C7010E94331673
:102E600097FD04C089930F5F1F4FF4CFC801DF9116
:102E7000CF911F910F91FF90EF90DF90CF90089529
:102E800040911F035091200320911D0330911E0398
:102E900042175307B4F49091E8009570E1F39091D4
:102EA000E80092FD19C08093F10080911F0390917A
:102EB000200301968F739927892B19F48EEF809345
:102EC000E80080911F0390912003019690932003C6
:102ED00080931F0381E0089580E00895CF92DF92F0
:102EE000FF920F931F93CF93DF931F92CDB7DEB75F
:102EF000082F162F862F880F8E5F99830E94401708
:102F000083E00E944017F02EC02E9981D92E8C2D7F
:102F10008F19811778F4F60184910E944017082FC9
:102F200080E00E9440178023FFEFCF1ADF0A811153
:102F3000EECF01C081E00F90DF91CF911F910F91F3
:102F4000FF90DF90CF900895615030F02091F10014
:102F5000FC0120830196F8CF289884E68093220311
:102F600008952FB7FC012083F89467706093E900FF
:102F70000895CF93DF931F92CDB7DEB7682FCE01B0
:102F800001960E94B1178091F20099819FBF0F9026
:102F9000DF91CF910895FF920F931F93CF93DF930B
:102FA00000D0CDB7DEB7F62E8A0190912103992388
:102FB00011F057FF03C08FEF9FEF2BC0682FCE019A
:102FC00001967A830E94B1178091F20090E0A801E7
:102FD0007A81801791070CF4AC01EF2DF72FF40ED6
:102FE00084E6FE1639F02898809322039091F10030
:102FF0009193F7CF4115510521F08091F20088237C
:1030000021F089818FBFCA0104C08BE68093E8005C
:10301000F8CF0F900F90DF91CF911F910F91FF90FC
:103020000895CF93DF931F92CDB7DEB741E050E014
:10303000BE016F5F7F4F0E94CB17019719F4898102
:1030400090E002C08FEF9FEF0F90DF91CF91089536
:10305000CF93DF931F92CDB7DEB7682FCE010196D5
:103060000E94B1179091E800892F807295FF04C0EB
:103070009091F20080E4891B99819FBF0F90DF91AE
:10308000CF9108956F927F928F929F92AF92BF924D
:10309000CF92DF92EF92FF920F931F93CF93DF9324
:1030A0001F92CDB7DEB7782E7B01C42EB52E80914E
:1030B0002103882369F0042F152F8AEFD82E872D3E
:1030C0008072982E9AE3A92E872D8074882E11C0C5
:1030D0008FEF9FEF57C0872D0E942818682E81110F
:1030E0000CC0DA94A9F361E070E080E090E00E9407
:1030F000D5100115110579F73BC0282F30E00217D4
:1031000013070CF4602E672DCE0101960E94B117B3
:103110008091E80085FF29C0262D30E0021B130BAB
:10312000992039F06A948FEF6816B1F01092F1008F
:10313000F9CFF701862D77FE07C0815058F09491A2
:103140009093F1003196F9CF815020F091919093B6
:10315000F100FACFE20EF31E8091E80085FF0FC068
:103160000115110511F481100AC089818FBFC1CFEB
:103170005D9884E6809323038C2D9B2D03C0A09241
:10318000E800F3CF0F90DF91CF911F910F91FF9047
:10319000EF90DF90CF90BF90AF909F908F907F90F7
:1031A0006F9008951092E9001092200310921F036F
:1031B00090931E0380931D030895CF92DF92FF9298
:1031C0000F931F93CF93DF9300D0CDB7DEB7F82EC8
:1031D0008A016B0101151105B1F0F601F7FE02C07D
:1031E000849101C0808149835A830E944017015015
:1031F0001109FFEFCF1ADF0A49815A818111EACF05
:103200008FEF9FEF01C0CA010F900F90DF91CF9118
:103210001F910F91FF90DF90CF9008951F93CF9350
:10322000DF931F92CDB7DEB7162F2091E80022FF63
:10323000FCCF612F79830E94A4178BEF8093E80065
:10324000812F7981972F0F90DF91CF911F91089552
:10325000CF93DF931F92CDB7DEB71982CE010196CF
:103260000E944D13CE0101960E94431B898190E07C
:103270000F90DF91CF9108951F920F920FB60F928A
:103280001124EF92FF920F931F932F933F934F932D
:103290005F936F937F938F939F93AF93BF93EF93BE
:1032A000FF93CF93DF93CDB7DEB76297DEBFCDBF7D
:1032B0001092E9008091E80083FFEBC068E0CE0146
:1032C0000A960E94A41782EF8093E8009A8597FFE0
:1032D00005C08091E80080FFFCCF03C08EEF809393
:1032E000E800892F807609F0B9C08B85811105C06F
:1032F0001092F1001092F100C5C0282F2D7F2130CF
:1033000009F4C0C0853049F48091E80080FFFCCF0B
:103310008C8580688093E300B5C0863009F076C064
:103320002D85E888F988223071F580E090E02A8BBD
:103330000E94D2180E94281999E08E010F5F1F4F3A
:10334000F801392F11923A95E9F799832A892A834E
:1033500091E09E8390E898879AEF998720911F03C8
:1033600030912003275F3F4F3C832B838D83C70120
:103370000E94D21849E050E0B80180E00E94DD18B8
:103380000E9428197FC0C7012A8B0E94D2182A895F
:10339000223241F482E290E00E944E1B892B09F018
:1033A00071C074C0213069F488899989089711F433
:1033B00020931C0380911C03811118C063E172E00B
:1033C0001AC0233009F062C08C85882391F08230C6
:1033D00021F46BE08EE292E006C0813009F056C025
:1033E00068E085E292E00E946E174AC061E072E0F8
:1033F00002C06AE372E06115710509F447C0FB0180
:10340000449150E080E80E94DD183CC0873009F408
:103410003DC0883021F481E08093F10033C08930D1
:1034200089F5937099F5EDEFF1E081E021E096E305
:103430008093E9002093EB0034913093EC0090935B
:10344000ED008F5F3196853099F78EE78093EA0023
:103450001092EA008C858093210314C08889998991
:103460000E94D2188E85811105C0CE010A960E9455
:10347000581306C0823051F4CE010A960E94761B82
:10348000882321F08EEF8093E80003C081E28093CF
:10349000EB0062960FB6F894DEBF0FBECDBFDF9192
:1034A000CF91FF91EF91BF91AF919F918F917F91BC
:1034B0006F915F914F913F912F911F910F91FF90CD
:1034C000EF900F900FBE0F901F9018958093E9001A
:1034D0008091F200882319F08AE38093E800089530
:1034E0001F920F920FB60F9211242F933F934F9379
:1034F0005F936F937F938F939F93AF93BF93EF935C
:10350000FF938091E1001092E10083FF0FC01092C1
:10351000E90091E09093EB001092EC0092E390931D
:10352000ED001092210398E09093F00082FF1DC0FF
:1035300083E00E94661A80912303882339F08091EA
:103540002303815080932303882369F08091220311
:10355000882359F0809122038150809322038111A6
:1035600004C0289A02C05D9AF1CFFF91EF91BF91FC
:10357000AF919F918F917F916F915F914F913F910B
:103580002F910F900FBE0F901F901895109221034E
:1035900081E08093D70080EA8093D80082E089BDE3
:1035A00009B400FEFDCF61E070E080E090E00E9491
:1035B000D51080E98093D8008CE08093E2001092CF
:1035C000E000559A209A0895CF93DF9300D000D061
:1035D000CDB7DEB79B01AC01611571058105910581
:1035E00069F069833A834B835C830E94332129818C
:1035F0003A814B815C810E946A1F03C060E070E0E9
:10360000CB010F900F900F900F90DF91CF91089505
:10361000CF92DF92EF92FF926B017C0162177307EA
:103620008407950764F4CA01B9016C197D098E09F4
:103630009F090E94E41A6C0D7D1D8E1D9F1DFF9039
:10364000EF90DF90CF9008950895FF920F931F930E
:10365000CF93DF93EC01F62EE881F9810480F581A8
:10366000E02D09958C01E881F9810680F781E02D34
:103670006F2DCE010995C8019927DF91CF911F9138
:103680000F91FF900895FC0120812F5F208349E175
:1036900050E06EEB72E080E80C94DD1845E650E0F7
:1036A00067ED72E080E80C94DD18EF92FF920F93C3
:1036B0001F93CF93DF931F92CDB7DEB789838B0122
:1036C0007A0141E050E0BE016F5F7F4F84E00E94CD
:1036D0004218A701B80184E40E9442180F90DF91BC
:1036E000CF911F910F91FF90EF900895FC01918170
:1036F0008081813A31F481E0913091F0933089F406
:1037000011C0813271F49B3021F4828180931401C5
:1037100005C09A3031F482818093130181E00895CD
:10372000089580E0089548E050E082E00C94551B35
:10373000CF93DF93DC01683818F0E8E7E60F25C087
:10374000E62FF0E067FF11C0E058F10981E090E05A
:1037500001C0880FEA95EAF714969C911497982B6C
:1037600014969C931497E0E010C0E25CFD4FE49146
:10377000EE2309F440C0E7FF08C014968C9114971B
:10378000826014968C931497EF7716968C91169707
:103790008E1741F117968C9117978E1719F118967D
:1037A0008C9118978E17F1F019968C9119978E17A6
:1037B000C9F01A968C911A978E17A1F01B968C91CE
:1037C0001B978E1779F080E090E0ED01C80FD91FAC
:1037D0002E81211102C0EE8305C00196863091052D
:1037E000A1F709C0BD016C5F7F4FCD010E94931B03
:1037F00081E090E008C081E090E013969C938E9366
:10380000129780E090E0DF91CF910895683818F02A
:10381000E8E7E60F25C0E62FF0E067FF12C0E058AA
:10382000F10921E030E001C0220FEA95EAF7209586
:10383000DC0114963C911497322314963C93E0E0FB
:103840000FC0E25CFD4FE491EE2329F1E7FF08C0D1
:10385000DC0114962C9114972D7F14962C93EF77FE
:1038600020E030E0EE2351F0DC01A20FB31F1696EA
:103870004C9116974E1302C016961C922F5F3F4F25
:103880002630310579F7BC016C5F7F4F0E94931B96
:1038900081E090E0089580E090E00895FC011682B8
:1038A000178210861186128613861482BC016C5F03
:1038B0007F4F0C94931B10923003109227031092A9
:1038C000260387E691E090932503809324030895CF
:1038D0005058BB27AA270ED0C5C18ED130F093D146
:1038E00020F031F49F3F11F41EF45EC10EF4E09518
:1038F000E7FB54C1E92FD8D180F3BA1762077307E9
:103900008407950718F071F49EF5F0C10EF4E09568
:103910000B2EBA2FA02D0B01B90190010C01CA0189
:10392000A0011124FF27591B99F0593F50F4503E34
:1039300068F11A16F040A22F232F342F4427585F26
:10394000F3CF469537952795A795F0405395C9F73E
:103950007EF41F16BA0B620B730B840BBAF09150F6
:10396000A1F0FF0FBB1F661F771F881FC2F70EC095
:10397000BA0F621F731F841F48F487957795679568
:10398000B795F7959E3F08F0B3CF9395880F08F051
:103990009927EE0F979587950895DCD008F481E07C
:1039A000089539D1E3956FC10CD05CC12CD140F0A2
:1039B00023D130F021F45F3F19F0F0C0511197C1CD
:1039C000F3C072D198F39923C9F35523B1F3951B32
:1039D000550BBB27AA2762177307840738F09F5F30
:1039E0005F4F220F331F441FAA1FA9F333D00E2E9F
:1039F0003AF0E0E830D091505040E695001CCAF70C
:103A000029D0FE2F27D0660F771F881FBB1F2617D0
:103A100037074807AB07B0E809F0BB0B802DBF01A3
:103A2000FF2793585F4F2AF09E3F510568F0B6C0BC
:103A30005EC15F3FECF3983EDCF386957795679522
:103A4000B795F7959F5FC9F7880F911D9695879554
:103A500097F90895E1E0660F771F881FBB1F621773
:103A600073078407BA0720F0621B730B840BBA0B31
:103A7000EE1F88F7E095089504D06894B11137C11E
:103A800008951AD188F09F5790F0B92F9927B75110
:103A9000A0F0D1F0660F771F881F991F1AF0BA9512
:103AA000C9F712C0B13081F021D1B1E008951EC133
:103AB000672F782F8827B85F39F0B93FCCF3869508
:103AC00077956795B395D9F73EF490958095709565
:103AD00061957F4F8F4F9F4F0895E89409C097FBE2
:103AE0003EF490958095709561957F4F8F4F9F4FD5
:103AF0009923A9F0F92F96E9BB279395F695879519
:103B000077956795B795F111F8CFFAF4BB0F11F4DB
:103B100060FF1BC06F5F7F4F8F4F9F4F16C0882382
:103B200011F096E911C0772321F09EE8872F762FB8
:103B300005C0662371F096E8862F70E060E02AF0F9
:103B40009A95660F771F881FDAF7880F96958795E5
:103B500097F90895990F0008550FAA0BE0E8FEEFBA
:103B600016161706E807F907C0F012161306E40741
:103B7000F50798F0621B730B840B950B39F40A263A
:103B800061F0232B242B252B21F408950A2609F418
:103B9000A140A6958FEF811D811D089597F99F671C
:103BA00080E870E060E008959FEF80EC0895DF9377
:103BB000CF931F930F93FF92EF92DF927B018C01C3
:103BC000689405C0DA2EEF01AFD0FE01E894A5910C
:103BD0002591359145915591AEF3EF018BDEFE01B4
:103BE0009701A801DA9479F7DF90EF90FF900F9199
:103BF0001F91CF91DF91089500240A94161617069D
:103C000018060906089500240A94121613061406CD
:103C100005060895C9CF50D0E8F3E894E0E0BB274B
:103C20009F57F0F02AED3FE049EC06C0EE0FBB0FC6
:103C3000661F771F881F28F0B23A62077307840750
:103C400028F0B25A620B730B840BE3959A9572F7C6
:103C5000803830F49A95BB0F661F771F881FD2F704
:103C60009048E5C0092E0394000C11F4882352F00B
:103C7000BB0F40F4BF2B11F460FF04C06F5F7F4F98
:103C80008F4F9F4F0895EF93E0FF06C0A2EA2AED01
:103C90003FE049EC5FEB2EDEE5DF0F90039401FC83
:103CA0009058E8EEF0E0CFC057FD9058440F551FF4
:103CB00059F05F3F71F04795880F97FB991F61F0AE
:103CC0009F3F79F087950895121613061406551F25
:103CD000F2CF4695F1DF08C0161617061806991F91
:103CE000F1CF86957105610508940895E894BB2786
:103CF00066277727CB0197F908952CDF08F48FEF1B
:103D000008959B01AC0160E070E080E89FE34CCE39
:103D10000BD0A8CF71DF28F076DF18F0952309F0DB
:103D20003DCF42CF1124E3CFBFDFA0F3959FD1F366
:103D3000950F50E0551F629FF001729FBB27F00D59
:103D4000B11D639FAA27F00DB11DAA1F649F6627AE
:103D5000B00DA11D661F829F2227B00DA11D621FFD
:103D6000739FB00DA11D621F839FA00D611D221FB7
:103D7000749F3327A00D611D231F849F600D211D9B
:103D8000822F762F6A2F11249F5750408AF0E1F03E
:103D900088234AF0EE0FFF1FBB1F661F771F881F87
:103DA00091505040A9F79E3F510570F0F7CE9FCF3C
:103DB0005F3FECF3983EDCF3869577956795B79572
:103DC000F795E7959F5FC1F7FE2B880F911D96959C
:103DD000879597F908959F931EDF0F9007FCEE5F7C
:103DE00052CFDF93D92F17DFE695D7952AED3FE025
:103DF00049E45FE3B33A6207730784079507D795F1
:103E00002AF0A2EA49EC906875DD2CDFE6E0F1E0EB
:103E10001AD0DD0F0BF075DFDD0F0BF49058DF913A
:103E2000089598DE880B990B08959F3F31F09150CB
:103E300020F4879577956795B795880F911D96958E
:103E4000879597F908959F938F937F936F93FF932F
:103E5000EF939B01AC015CDFEF91FF91A8DE2F9106
:103E60003F914F915F9154CF97FB072E16F400942A
:103E700007D077FD09D00E949A1F07FC05D03EF4B9
:103E8000909581959F4F0895709561957F4F089506
:103E9000A1E21A2EAA1BBB1BFD010DC0AA1FBB1F4E
:103EA000EE1FFF1FA217B307E407F50720F0A21BC0
:103EB000B30BE40BF50B661F771F881F991F1A942D
:103EC00069F760957095809590959B01AC01BD0157
:103ED000CF010895052E97FB1EF400940E94811FC8
:103EE00057FD07D00E94481F07FC03D04EF40C94E6
:103EF000811F50954095309521953F4F4F4F5F4F13
:103F0000089590958095709561957F4F8F4F9F4F45
:103F10000895EE0FFF1F0590F491E02D09940E9483
:103F2000AE1FA59F900DB49F900DA49F800D911D75
:103F300011240895AA1BBB1B51E107C0AA1FBB1F78
:103F4000A617B70710F0A61BB70B881F991F5A9525
:103F5000A9F780959095BC01CD010895A29FB0016D
:103F6000B39FC001A39F700D811D1124911DB29FAD
:103F7000700D811D1124911D0895CF93DF93823020
:103F8000910510F482E090E0E0913303F091340366
:103F900020E030E0A0E0B0E0309739F1408151817D
:103FA00048175907B8F04817590771F4828193816F
:103FB000109729F013969C938E9312972CC0909390
:103FC00034038093330327C02115310531F04217A4
:103FD000530718F0A901DB0101C0EF019A01BD01EF
:103FE000DF010280F381E02DD7CF21153105F9F0F3
:103FF000281B390B2430310580F48A819B8161159F
:10400000710521F0FB019383828304C090933403F4
:1040100080933303FE01329644C0FE01E20FF31F8A
:104020008193919322503109398328833AC020919A
:10403000310330913203232B41F42091020130915E
:10404000030130933203209331032091000130911A
:1040500001012115310541F42DB73EB7409104010E
:1040600050910501241B350BE0913103F09132038F
:10407000E217F307A0F42E1B3F0B2817390778F03F
:10408000AC014E5F5F4F2417350748F04E0F5F1F9E
:1040900050933203409331038193919302C0E0E047
:1040A000F0E0CF01DF91CF910895CF93DF93009798
:1040B00009F487C0FC01329713821282C091330346
:1040C000D0913403209781F420813181280F391F4A
:1040D00080913103909132038217930779F5F09321
:1040E0003203E09331036DC0DE0120E030E0AE1713
:1040F000BF0750F412964D915C9113979D014115A5
:10410000510509F1DA01F3CFB383A28340815181D4
:10411000840F951F8A179B0771F48D919C911197BD
:10412000840F951F02969183808312968D919C91A6
:104130001397938382832115310529F4F093340377
:10414000E09333033EC0D9011396FC93EE9312978C
:104150004D915D91A40FB51FEA17FB0779F480819B
:104160009181840F951F0296D90111969C938E938D
:104170008281938113969C938E931297E0E0F0E0F6
:104180008A819B81009719F0FE01EC01F9CFCE01E5
:10419000029628813981820F931F2091310330913B
:1041A00032032817390769F4309729F41092340341
:1041B0001092330302C013821282D0933203C09351
:1041C0003103DF91CF9108958F929F92AF92BF926A
:1041D000CF92DF92EF92FF92CF93DF93EC01688151
:1041E00079818A819B81611571058105910521F491
:1041F00064E279ED8BE597E02DE133EF41E050E0AB
:104200000E946A1F49015A019B01AC01A7EAB1E46F
:104210000E948F1F6B017C01ACEEB4EFA5019401ED
:104220000E944421C60ED71EE81EF91EF7FE06C0E6
:1042300081E0C81AD108E10880E8F80AC882D9826A
:10424000EA82FB82C701B6019F77DF91CF91FF9091
:10425000EF90DF90CF90BF90AF909F908F90089598
:104260000E94E420089586E091E00E94E4200895F1
:1042700060930601709307018093080190930901F0
:104280000895B7FF0C948F1F0E948F1F821B930B02
:064290000895F894FFCF31
:10429600000035038000010000000100E10000007D
:1042A60000000001010001010202020303040506E9
:1042B60007090A0C0F1115191E242B333D4957689F
:1042C6007D95B2D5FF00000000C30E960E6B0E73EF
:1042D6000E860E950E00000000F01237131A132AF0
:1042E60013061317136E616E00696E66006F7666AD
:1042F600002E0000000000251BE813981B061C4E2C
:024306001C0099
:00000001FF
